:020000040000fa
:080000000002040000000000f2
:020000040000fa
:10040000efbd2000003f2400000188000000000034
:100410000a00070011000700000020000000e000b3
:100420000200320000000200000000000a0c02007e
:10043000000000000040da000000fe004440a90077
:10044000000020000000e000030032000000200057
:10045000a00188004440a80000000600004c2100d4
:10046000010020001500370062004000e0804800d5
:10047000910188009001ba0062004000e0804800cd
:10048000910188009002ba0062004000e0804800bc
:100490000002eb006028e10004003a000059eb0084
:1004a0008301e900fdff3e00040037006128e10000
:1004b000010032000082eb00050007009101880076
:1004c0001001ba000200e000e7ff3a00000005005a
:1004d000910188008002780062004000e0804800be
:1004e0003559ba008301e900080032002559ba00e5
:1004f0008301e900050032000400e000f4ff32004f
:1005000015d9ba008301e900f1ff3a0000000600a6
:10051000839f68000100e00002003d0060001000c1
:10052000e08018000300e00002003d0060011100bf
:10053000e0811900050007004f00e00002003b00c9
:1005400060001000e0801800000006006022b80083
:10055000060220000000d0008180d2000482d20078
:100560008582d2000000a0000202520083825a005d
:10057000030031000202420083824a000000a10011
:0c0580000603e900f3ff3a00000006004b
:020000040000fa
:0200000401f009
:04000800ffff0000f6
:020000040000fa
:0200000401f009
:04000c00f8ff0000f9
:020000040000fa
:0200000401f009
:040010007bff000072
:020000040000fa
:0200000401f009
:040014007fff00006a
:020000040000fa
:100008000a1500000a1500000a1500000a1500006c
:100018000a1500000a1500000a1500000a1500005c
:100028000a1500000a1500000a1500000a1500004c
:10003800fc1200000a1500000a1500000a1500004d
:100048000a1500000a150000021000000a15000039
:100058000a1500000a1500006e1100000a150000bc
:100068000a1500000a1500000a1500000a1500000c
:100078000a1500000a1500000a1500000a150000fc
:100088000a1500000a1500000a150000bc0b000044
:100098000a1500000a1500000a1500000a150000dc
:1000a8000a1500000a1500000a1500000a150000cc
:1000b8000a1500000a1500000a1500000a150000bc
:1000c8000a1500000a1500000a1500000a150000ac
:1000d8000a1500000a1500000a1500000a1500009c
:1000e8000a1500000a1500000a1500000a1500008c
:1000f8000a1500000a1500000a1500000a1500007c
:100108000a1500000a1500000a1500000a1500006b
:100118000a1500000a1500000a1500000a1500005b
:100128000a1500000a1500000a1500000a1500004b
:100138000a1500000a1500000a1500000a1500003b
:100148000a1500000a1500000a1500000a1500002b
:100158000a1500000a1500000a1500000a1500001b
:100168000a1500000a1500000a1500000a1500000b
:100178000a1500000a1500000a1500000a150000fb
:100188000a1500000a1500000a1500000a150000eb
:100198000a1500000a1500000a1500000a150000db
:1001a8000a1500000a1500000a1500000a150000cb
:1001b8000a1500000a1500000a1500000a150000bb
:1001c8000a1500000a1500000a1500000a150000ab
:1001d8000a1500000a1500000a1500000a1500009b
:1001e8000a1500000a1500000a1500000a1500008b
:0801f8000a1500000a150000c1
:020000040000fa
:100208000a1500000a1500000a1500000a1500006a
:100218000a1500000a1500000a1500000a1500005a
:100228000a1500000a1500000a1500000a1500004a
:10023800fc1200000a1500000a1500000a1500004b
:100248000a1500000a150000021000000a15000037
:100258000a1500000a1500006e1100000a150000ba
:100268000a1500000a1500000a1500000a1500000a
:100278000a1500000a1500000a1500000a150000fa
:100288000a1500000a1500000a150000bc0b000042
:100298000a1500000a1500000a1500000a150000da
:1002a8000a1500000a1500000a1500000a150000ca
:1002b8000a1500000a1500000a1500000a150000ba
:1002c8000a1500000a1500000a1500000a150000aa
:1002d8000a1500000a1500000a1500000a1500009a
:1002e8000a1500000a1500000a1500000a1500008a
:1002f8000a1500000a1500000a1500000a1500007a
:100308000a1500000a1500000a1500000a15000069
:100318000a1500000a1500000a1500000a15000059
:100328000a1500000a1500000a1500000a15000049
:100338000a1500000a1500000a1500000a15000039
:100348000a1500000a1500000a1500000a15000029
:100358000a1500000a1500000a1500000a15000019
:100368000a1500000a1500000a1500000a15000009
:100378000a1500000a1500000a1500000a150000f9
:100388000a1500000a1500000a1500000a150000e9
:100398000a1500000a1500000a1500000a150000d9
:1003a8000a1500000a1500000a1500000a150000c9
:1003b8000a1500000a1500000a1500000a150000b9
:1003c8000a1500000a1500000a1500000a150000a9
:1003d8000a1500000a1500000a1500000a15000099
:1003e8000a1500000a1500000a1500000a15000089
:0803f8000a1500000a150000bf
:020000040000fa
:10058c000400fa00000f7800110798001e00780094
:10059c00b05e8800b15e80001e009000800878007c
:1005ac004382a9004362a9004342a9004322a80048
:1005bc004302a80042c2a90042a2a80042e2a9003c
:1005cc00212420009140780030ceb30000c06000a0
:1005dc008041b30042e2b700212420009140780012
:1005ec00c0cfb30000c060000014a00042e2b7000e
:1005fc0045e2a9002c43a800c642a900ca42a800a3
:10060c0041a2a9000080fa00000006000200fa00d6
:10061c00000f78009540a80041e2a8009e007800e9
:10062c000000eb00a00098009e0078000000eb009a
:10063c00900098009e0078000000eb00c00098002d
:10064c009e00780000102000b0009800ca42a8005c
:10065c000080fa00000006001600fa00200798003f
:10066c0032079800430798005107980064079800d8
:10067c002e00900010007800000f78009e0078008b
:10068c0020c0b300804878001e03e8003e009000b4
:10069c00ce00900002002000f30f20000002780032
:1006ac00810278000200780083007800000162006b
:1006bc00018062006102b80074079800050f980071
:1006cc007e0090008e089000c000dd00000020002d
:1006dc0070079800010f98007e0090008e08900023
:1006ec006112b80074079800050f98007e01900005
:1006fc008e09900002007000838070004088de003c
:10070c00cf80de00004b78001e83e8003e00900096
:10071c00ce00900002f02f000300200000027800b1
:10072c0081027800020078008300780000016200ea
:10073c00018062006102b800140f9800250f980028
:10074c001e089000ae089000c000dd0000002000e4
:10075c00100f9800210f98001e089000ae08900012
:10076c006112b800140f9800250f98001e09900014
:10077c00ae0990000200700083807000c809dd0093
:10078c004800de0000807100c888de00004b780055
:10079c001e027800630142003e0090008040780009
:1007ac0000c0eb0000c0600000497800ee00900033
:1007bc0000102000808f5000020034000010200038
:1007cc00600798009e027800638042001040780019
:1007dc000004e000100032009e00780063804000ae
:1007ec00104078008080fb00001020008100500039
:1007fc006e009000808f500007003d001e017800b5
:10080c0063004100104078008080fb000010200045
:10081c0001005000600798000000eb0010079800e2
:10082c000b0037001e0090001e00400064014000c9
:10083c009e0090005e009000008040001040780008
:10084c00004978001e0090000000e8001007980096
:10085c00ee0090001e009000808f5000f1ff3e00d3
:10086c002e00900020009000800078000120a00055
:10087c002e009000210098006e009000e4004000d3
:10088c002e00900031009800ca42a9001e0078008a
:10089c00104078000080fb00401288006e00900031
:1008ac000080fa00000006001600fa0020079800ed
:1008bc003207980043079800510798006407980086
:1008cc003e009000ce00900002002000f30f2000ac
:1008dc000002780081027800020078008300780022
:1008ec0000016200018062006102b8007407980088
:1008fc00050f98007e0090008e089000c000dd006f
:10090c000000200070079800010f98007e009000f6
:10091c008e0890006112b80074079800050f9800bb
:10092c007e0190008e0990000200700083807000a0
:10093c004088de00cf80de00204798003e0090000b
:10094c00ce00900002f02f0003002000000278007f
:10095c0081027800020078008300780000016200b8
:10096c00018062006102b800140f9800250f9800f6
:10097c001e089000ae089000c000dd0000002000b2
:10098c00100f9800210f98001e089000ae089000e0
:10099c006112b800140f9800250f98001e099000e2
:1009ac00ae0990000200700083807000c809dd0061
:1009bc004800de0000807100c888de0010479800f7
:1009cc003e0090008040780000c0eb0000cf60003b
:1009dc00ee00900000102000808f500004003400c6
:1009ec00ae00900000102000b0009800030037000b
:1009fc002e0090006e02900034009800de009000f3
:100a0c002e00900051009800ae0090000000eb000a
:100a1c00c0009800ca42a900300020004012880093
:100a2c002e009000200090000000a20061006000e9
:100a3c000004e000faff3a002e009000a0009000a5
:100a4c00e0ff2f00808060002e00900021009800b5
:100a5c002e4090000000fb00401288002e009000f9
:100a6c00200090000000a200610060000004e00083
:100a7c00faff3a002e009000a0009000e0ff2f003b
:100a8c00808060002e009000210098001e40900095
:100a9c000000fb00401288002e0090002000900007
:100aac000000a200610060000004e000faff3a00c0
:100abc002e009000a0009000e0ff2f0080806000ce
:100acc002e009000210098001e00fb0040128800b0
:100adc002e009000200090000000a2006100600039
:100aec000004e000faff3a002e009000a0009000f5
:100afc00e0ff2f00808060002e0090002100980005
:100b0c000000eb00401288002e00900020009000a6
:100b1c00800078000110a0002e00900021009800a9
:100b2c000080fa00000006000400fa00000f7800b4
:100b3c001e007800200090004200de006100600082
:100b4c000004e000030032001000200010079800a1
:100b5c002b0037001e007800200090000000d10010
:100b6c00610060000004e00003003200100020006f
:100b7c001007980022003700ca42a900500020003c
:100b8c00401288001e007800200090000000a20097
:100b9c00610060000004e000faff3a001e007800db
:100bac00a0009000e0ff2f00808060001e00780005
:100bbc00210098000000eb00401288001e00780015
:100bcc00200090000000a200610060000004e00022
:100bdc00faff3a001e007800a0009000e0ff2f0002
:100bec00808060001e00780021009800ca42a80096
:100bfc001e00780010009000610060001007980043
:100c0c001e0090000080fa00000006000e00fa00a2
:100c1c004007980051079800620798005e0090000a
:100c2c00e10f500011003a00ca42a9002006200032
:100c3c00401288004e009000200090000000a2009e
:100c4c00610060000004e000faff3a004e009000e2
:100c5c00a0009000e0ff2f00808060004e0090000c
:100c6c0021009800ca42a800ee0037005e009000f8
:100c7c00e20f500031003a006e00900020079800ff
:100c8c00ca42a90050012000401288004e0090007a
:100c9c00200090000000a200610060000004e00051
:100cac00faff3a004e009000a0009000e0ff2f00e9
:100cbc00808060004e009000210098000000eb0046
:100ccc0030079800180037000000eb004012880035
:100cdc004e009000200090000000a2006100600017
:100cec000004e000faff3a004e009000a0009000d3
:100cfc00e0ff2f00808060004e00900021009800e3
:100d0c003e009000800078002e0090008080400013
:100d1c004e00900010009000804878003e0090003b
:100d2c000000e800300798003e009000e30f5000f0
:100d3c00e5ff3400ca42a800ba0037005e009000fc
:100d4c00e30f500026003a006e0090001007980048
:100d5c00ca42a90050002000401288004e009000aa
:100d6c00200090000000a200610060000004e00080
:100d7c00faff3a004e009000a0009000e0ff2f0018
:100d8c00808060004e009000210098000000eb0075
:100d9c00401288004e009000200090000000a2003d
:100dac00610060000004e000faff3a004e00900081
:100dbc00a0009000e0ff2f00808060004e009000ab
:100dcc00210098004e0090001000900080407800a8
:100ddc001e00900001487800ca42a800910037001c
:100dec005e009000e40f500011003a00ca42a900c6
:100dfc0060002000401288004e00900020009000ff
:100e0c000000a200610060000004e000faff3a005c
:100e1c004e009000a0009000e0ff2f00808060004a
:100e2c004e00900021009800ca42a8007d003700b7
:100e3c005e009000e60f500011003a00ca42a90073
:100e4c0040002000401288004e00900020009000ce
:100e5c000000a200610060000004e000faff3a000c
:100e6c004e009000a0009000e0ff2f0080806000fa
:100e7c004e00900021009800ca42a800690037007b
:100e8c005e009000e70f500043003a006e009000a7
:100e9c00000f7800ca42a9002005200040128800eb
:100eac004e009000200090000000a2006100600045
:100ebc000004e000faff3a004e009000a000900001
:100ecc00e0ff2f00808060004e0090002100980011
:100edc001e80e800104078000000fb0040128800e3
:100eec004e009000200090000000a2006100600005
:100efc000004e000faff3a004e009000a0009000c1
:100f0c00e0ff2f00808060004e00900021009800d0
:100f1c001e00e800104078000000fb004012880022
:100f2c004e009000200090000000a20061006000c4
:100f3c000004e000faff3a004e009000a000900080
:100f4c00e0ff2f00808060004e0090002100980090
:100f5c001e007800104078000000fb004012880052
:100f6c004e009000200090000000a2006100600084
:100f7c000004e000faff3a004e009000a000900040
:100f8c00e0ff2f00808060004e0090002100980050
:100f9c00ca42a800230037005e009000e50f500005
:100fac0020003a00ca42a90010002000401288001c
:100fbc004e009000200090000000a2006100600034
:100fcc000004e000faff3a004e009000a0009000f0
:100fdc00e0ff2f00808060004e0090002100980000
:100fec006e009000104078000000fb00401288005a
:100ffc004e009000200090000000a20061006000f4
:10100c000004e000faff3a004e009000a0009000af
:10101c00e0ff2f00808060004e00900021009800bf
:10102c00ca42a8000080fa00000006000000fa0086
:10103c008540a900b05e8000200090004200de00d8
:10104c00610060000004e00024003200b15e80000a
:10105c004012800090009800b15e8000410090002a
:10106c000000e800c0009800b05e8000c000900056
:10107c00b05e800030009000808f500009003d0071
:10108c00b05e800090007800b05e80004000900060
:10109c0000804000104078000000fb0040128800e7
:1010ac003e003700b25e8000b05e8000a000900071
:1010bc00b0ff2f000080600020019800b15e80001e
:1010cc000000eb00b0009800b15e80000000eb0067
:1010dc00c0009800ca42a80030003700b05e800003
:1010ec00200090000000d100610060000004e000ce
:1010fc0022003200b05e8000d0009000b05e800014
:10110c0040009000808040004012800080487800b1
:10111c00b15e8000410090000000e800c000980023
:10112c00b05e8000c0009000b05e80003000900087
:10113c00808f500003003d000000eb00401288003f
:10114c0016003700b25e8000b05e8000a0009000f8
:10115c00d0ff2f000080600020019800b15e80005d
:10116c000000eb00b0009800b15e80000000eb00c6
:10117c00c0009800ca42a80008003700b15e800089
:10118c00b05e8000200090000000a000a00098003d
:10119c00b15e800040128000900098000080fa0040
:1011ac0000000600e05e8800010098000001eb00e2
:1011bc0012009800220098003200980002322000a1
:1011cc008201b3002200b3001212880045e2a9008c
:1011dc0041a2a9008540a9009540a80041e2a800c1
:1011ec002c43a800c642a900ca42a8001e21ef0049
:1011fc001421ef0002202000d20888008760a9008b
:10120c009760a800e05e80000000060010039000cc
:10121c000630a600020037000000eb0000000600bc
:10122c000400e00002003c000000eb00000006009f
:10123c000510200005a0e600041020008002eb0041
:10124c003500980024009800800290008003eb0089
:10125c00e1f27b008703e8000402e9000400e000ef
:10126c00fbff3c000630a00084ff2f00040363004a
:10127c00160098004200980053009800ca42a9003a
:10128c00640020004412880007007800000006006b
:10129c00100390000630a600020037000000eb009f
:1012ac00000006000400e00002003c000000eb001f
:1012bc00000006009540a90045128000ca42a90012
:1012cc0035002000451288004002ae00feff3700ba
:1012dc0045128000431288004002ae00feff37002a
:1012ec00451280000280fd00421288004002ae00d0
:1012fc00feff3700451280000280fd00421288007c
:10130c004002ae00feff3700451280000003eb00e8
:10131c008002eb00451288004002ae00feff370051
:10132c004712800087707b000603e80004b0e700da
:10133c00f8ff3700ca42a8008540a9009540a800d4
:10134c000400780000000600100390000630a60090
:10135c00020037000000eb00000006002300200014
:10136c000198e7001f0037009540a9004412800047
:10137c0003092000ca42a900431288004002ae00b3
:10138c00feff3700441280008001eb003500200086
:10139c00431288004002ae00feff3700441280006a
:1013ac008502e9000500e000f9ff3c004500200043
:1013bc00431288004002ae00feff3700441280004a
:1013cc00045978008502e9000500e000f8ff3c00b4
:1013dc00ca42a8008540a9009540a8001000200032
:1013ec0000000600130020000198e70024003700dd
:1013fc009540a9004412800063002000ca42a90055
:10140c00431288004002ae00feff3700ca42a8001b
:10141c0044128000030620000000000000000000c1
:10142c00ca42a900431288004002ae00feff3700fa
:10143c00ca42a80044128000ca42a90053002000ee
:10144c00431288004002ae00feff370044128000b9
:10145c008001eb00431288004002ae00feff370013
:10146c00441280000400a700faff3700ca42a8000b
:10147c008540a9009540a80010002000000006003f
:10148c00330020000198e700130037009540a900b5
:10149c00ca42a90044128000530020004312880065
:1014ac004002ae00feff3700441280008001eb00ca
:1014bc00431288004002ae00feff37004412800049
:1014cc0004497800ca42a8008540a9009540a800ac
:1014dc001000200000000600430020000198e700e7
:1014ec000d0037009540a9004412800063002000d5
:1014fc00ca42a900431288004002ae00feff37002a
:10150c00ca42a800441280008540a9009540a8005a
:10151c001000200000000600530020000198e70096
:10152c00190037009540a9004412800003052000e3
:10153c00ca42a900431288004002ae00feff3700e9
:10154c00ca42a8004412800013002000ca42a9001d
:10155c00431288004002ae00feff370044128000a8
:10156c0092017800431288004002ae00feff370063
:10157c00ca42a800441280008540a9009540a800ea
:10158c001000200000000600930020000198e700e6
:10159c00370037009540a90044128000ca42a900c8
:1015ac0063002000431288004002ae00feff3700ab
:1015bc00ca42a80044128000830d200000000000e5
:1015cc0000000000ca42a900431288004002ae008d
:1015dc00feff3700441280009201900043128800f5
:1015ec004002ae00feff37004412800092017800ea
:1015fc000380fd00431288004002ae00feff37005e
:10160c00441280000380fd00431288004002ae00ab
:10161c00feff370044128000ca42a8000000000000
:10162c00000000000000000053002000ca42a90086
:10163c00431288004002ae00feff370044128000c7
:10164c008001eb00431288004002ae00feff370021
:10165c00441280000400a700faff3700ca42a80019
:10166c008540a9009540a80010002000000006004d
:10167c000000eb0000000600801f7800811f78003e
:10168c00821f7800831f7800841f78008540a90092
:10169c0044128000e05e8000900090006781600042
:1016ac000200e00007003c00ca42a8008100e800ec
:1016bc001100980023002000ca42a90043128800a0
:1016cc00240037006110e10005003c008100e800b7
:1016dc0011009800d0019000431288001d003700c3
:1016ec006210e10006003c008100e8001100980047
:1016fc00c00190000380fd004312880015003700e4
:10170c006310e10005003c008100e8001100980026
:10171c00c0019000431288000e0037006410e100f5
:10172c000a003c008100e800110098008001900044
:10173c0030029000e3417a00200290000402e9009c
:10174c00240098004312880002003700ca42a80007
:10175c001fe1a8004f027800cf0178004f017800fc
:10176c00cf0078004f00780000000600801f780042
:10177c00811f7800821f7800831f78008760a90082
:10178c001fe1a9001421ef00e05e8000a000900092
:10179c000100e00014003400b00090008100e8006b
:1017ac0031009800d001900040019000610141008f
:1017bc00e0814900810020000198e6008001eb00e7
:1017cc0053009800420098009000900082ff2f0078
:1017dc008100610011009800ca42a900630020003a
:1017ec004312880003003700900090000130a100e4
:1017fc0011009800cf0178004f017800cf007800dd
:10180c004f007800004006001600fa006000b80097
:10181c00100f9800210f98000000200021002000dc
:10182c0070079800010f9800000020002100200094
:10183c0050079800610798006000b80030079800c6
:10184c00410798000000eb00200798000000eb0017
:10185c00100798000000eb00000f780090022000a9
:10186c00303a880044c7bf00f043b20044e7b700e9
:10187c00417420009140780000ceb30000c060009d
:10188c0044e7b7000000eb00403a8800120020004b
:10189c0081072000a00920003374200081497800c2
:1018ac0080497800824978001200200061042000f1
:1018bc00700520002374200081497800804978004d
:1018cc008249780043c7bf000047b200f04f500078
:1018dc00fcff3a0042c7bf000042b2000004e00027
:1018ec00fcff3200d6030700605e8000016024001c
:1018fc00ac020700705e800001402400d10107009b
:10190c0000a82000c9000700605e8000e902070003
:10191c00705e8000ee01070000003700605e800002
:10192c002c0307000000e000fcff3a00605e800022
:10193c000208200001802000f50207002e00900014
:10194c000000e00019003a001e0090000000e000ca
:10195c0016003a0003082000029020001e08900098
:10196c00ae089000740107006101b9001e089000d8
:10197c00ae0890000000410081804900100f9800d3
:10198c00210f98001e099000ae09900000f027006e
:10199c0011002000800f5100818f5900030034008a
:1019ac006000b800100f9800210f98002e009000d6
:1019bc00e10f50004e003a001e00e0002d003a00ee
:1019cc00605e8000ca020700705e8000df010700c5
:1019dc00000020002100200070079800010f9800e3
:1019ec00000020002100200050079800610798009b
:1019fc00d1e2a900d1a2a800000020002100200003
:101a0c0030079800410798000b0037003e0090000b
:101a1c00ce009000f30007003e009000ce00900036
:101a2c0002002000130020000000410081804900ca
:101a3c0030079800410798003e019000ce019000bd
:101a4c00e0ff2f0071002000800f5100818f5900a2
:101a5c00eeff3400d1e2a80010002000000f780047
:101a6c00605e800093020700705e800098010700a2
:101a7c001f003700d1a2a90002082000019020000d
:101a8c0000802000e70207000308200002902000dd
:101a9c007e0090008e089000ea0007006101b900fa
:101aac007e0090008e08900000004100818049006b
:101abc0070079800010f98007e0190008e0990002d
:101acc00e0ff2f0071002000800f5100818f590022
:101adc0007003400d1a2a8000000eb00000f780032
:101aec000000eb0020079800100020001007980061
:101afc001e009000e10f50001a003a00d1c2a9005c
:101b0c000000eb00000f780003082000029020007a
:101b1c005e009000ee009000070107006101b90023
:101b2c005e009000ee0090000000410081804900b2
:101b3c0050079800610798005e019000ee0190003c
:101b4c007e0090008e089000800f5100818f59000c
:101b5c0004003500000020002100200050079800f0
:101b6c0061079800020820000198200000902000d6
:101b7c00d0020700705e8000cf0107000000e0007b
:101b8c00fcff3a00705e80000208200001982000e3
:101b9c00750107004d030700e10f50000f003a00dc
:101bac0010002000200798006000b800100f98006b
:101bbc00210f98000000eb00000f78002e00900021
:101bcc00e10f500004003a000000eb0010079800f1
:101bdc00d1c2a80001003700d1a2a8005003070011
:101bec00e10f50004dff3a00d1c2a80010002000b8
:101bfc00100798006000b800100f9800210f980093
:101c0c000000200021002000500798006107980078
:101c1c001e009000e10f500040ff3a000000eb0066
:101c2c0020079800d1a2a8003cff37000a00fa0058
:101c3c00400798000000eb0030079800a03320000c
:101c4c0010128800c642a9002c43a800ca42a80062
:101c5c0041e2a800ca42a9000009200040128800f5
:101c6c0040c2bf00614060000004e000fcff320095
:101c7c0040128000000f78000000eb00401288003a
:101c8c0040c2bf00614060000004e000fcff320075
:101c9c0040128000000f78000000eb00401288001a
:101cac0040c2bf00614060000004e000fcff320055
:101cbc0040128000000f78000000eb0040128800fa
:101ccc0040c2bf00614060000004e000fcff320035
:101cdc0040128000000f78000000eb0040128800da
:101cec0040c2bf00614060000004e000fcff320015
:101cfc0040128000100798000000eb004012880092
:101d0c0040c2bf00614060000004e000fcff3200f4
:101d1c004012800020079800ca42a8008540a90004
:101d2c009e009000f00b2000808f50000b003a00ba
:101d3c0010002000505e8800ce009000c0bb200038
:101d4c0018fd0700405e8800405e80006601470079
:101d5c00510020007cfd0700070037000000eb005d
:101d6c00505e8800d05e8000ce00900004fa070020
:101d7c00d05e800025fa07000080fa000000060003
:101d8c000000fa00505e8000e10f500007003a009e
:101d9c00405e80000001eb00110020006afd07008e
:101dac000000e000faff32000c003700d05e80002b
:101dbc000001eb004100200094fb0700d05e800086
:101dcc000001eb001100200090fb0700d05e8000aa
:101ddc0055fb07000000e000fcff3a000080fa0011
:101dec00000006000400fa00008fbe00505e800068
:101dfc00e10f500005003a00405e80000e017800b3
:101e0c009100200050fd07000c003700d05e8000d0
:101e1c000001eb00410020007cfb0700d05e80003d
:101e2c000e0178007100200078fb0700d05e800066
:101e3c003dfb07000000e000fcff3a000080fa00c8
:101e4c00000006000a00fa0010079800210798000d
:101e5c0032079800430798000000eb00000f780051
:101e6c00505e8000e10f50002d003a00100037004a
:101e7c004e0090001e0250001e007800800078007a
:101e8c003e009000808240001e0078006101b90085
:101e9c001e009000ae0090000201400083814800bb
:101eac00405e800085007800d8fc07001e0f4000c3
:101ebc004e0090009e0f1000edff35001b00370008
:101ecc00d05e800018fb07000000e000fcff3a0029
:101edc00d05e80000001eb00410020004bfb0700ae
:101eec004e0090001e0250001e007800800078000a
:101efc003e009000808240001e0078006101b90015
:101f0c001e009000ae00900002014000838148004a
:101f1c00d05e800085007800cff907001e0f4000ce
:101f2c004e0090009e0f1000e5ff35004e00900013
:101f3c000080fa00000006000a00fa001007980062
:101f4c002107980032079800430798000000eb0027
:101f5c00000f7800505e8000e10f500015003a0031
:101f6c00100037004e0090001e0250001e0078003a
:101f7c00800078003e009000808240001e007800b7
:101f8c006101b9001e009000ae00900002014000fb
:101f9c0083814800405e800085007800bcfc07000f
:101fac001e0f40004e0090009e0f1000edff3500fc
:101fbc000e003700d05e8000dbfa07000000e00066
:101fcc00fcff3a00d05e80004e029000be009000f4
:101fdc001e019000ae01900033fa0700d05e800025
:101fec00d1fa07000000e000fcff3a004e00900020
:101ffc000080fa00000006003600f800809fbe004a
:10200c00829fbe00849fbe00869fbe000000fa0027
:10201c00505e8000e10f500002003a0096fd070070
:10202c000100370001fc07000080fa004f03be00de
:10203c004f02be004f01be004f00be003600f9003b
:10204c00004006000400fa00000f78001107980009
:10205c001e007800c05e88001e0078009e00900074
:10206c00010878001e0090000110200080804000c4
:10207c001e0078001100980010012200601c8800de
:10208c0070002000701c88001e0078001000780082
:10209c00800078000000240000805000801c880024
:1020ac0000182000a01c880070002000b01c8800c4
:1020bc000000eb00800888000000eb00300888006e
:1020cc000000eb00600888000080fa0000000600a9
:1020dc000200fa00000f78009e0078000000eb0070
:1020ec00a00098009e0078000000eb00e000980033
:1020fc009e00780000082000c00098009e00780028
:10210c0000082000d00098009e0078000000eb0032
:10211c00b000980085c0a90095c0a8008de3a80068
:10212c00002720006008880080132000000c880025
:10213c0080132000100c880060002000200c880008
:10214c0011e1a8000080fa00000006000200fa006d
:10215c00000f780011e1a90095c0a9008de3a9003a
:10216c000080fa00000006001000fa0040079800fa
:10217c0051079800620798004e00900020009000d4
:10218c000000e000040032004e00900010007800c7
:10219c0070079800030037004e009000100090006c
:1021ac00700798007e00900030079800ee009000b9
:1021bc0000082000808f500002003400000820002e
:1021cc00600798000000eb00200798002c003700f7
:1021dc002e00900000004000800078005e0090000f
:1021ec000080400090007800000028000080400033
:1021fc00100798001e0090006101b8000027200015
:10220c000013b8006010b900070278000002420009
:10221c00002720000098b9000002420084037800d7
:10222c00f2ff2f00030020000600be00b5f80700e7
:10223c00000f7800002720009e0f100002003600cf
:10224c00f0262000000f78001e00e00002003a008b
:10225c0010002000000f78002e00900000004000bd
:10226c00800078003e009000808040001e007800c6
:10227c00800878002e0090000000e80020079800ed
:10228c00ae0090006e009000808f5000d0ff3500a3
:10229c004e009000ee009000510098000400fc00ed
:1022ac00ce00900010002000b00098000000fc0050
:1022bc000080fa00000006000200fa00000f78000f
:1022cc001e007800300090000080fa00000006002c
:1022dc00809fbe000000fa0085c0a900c15e80008e
:1022ec00610090000000e800e0009800c05e8000f3
:1022fc00e0009000c05e800040009000808f500095
:10230c0021003a00c15e80000000eb00e000980064
:10231c00c15e8000c05e8000200090000000a20022
:10232c00a0009800c15e80000000eb00b000980097
:10233c00c05e800020009000e10f500007003a00c2
:10234c00c05e800010009000800078000000240027
:10235c0000805000801c880006003700c05e8000a2
:10236c0010007800800078000000240000805000ed
:10237c00801c8800c05e8000c15e8000d10090008f
:10238c004100980003003700801c80000080e800aa
:10239c00801c88008de3a8000080fa004f00be006e
:1023ac00004006000400fa00000f780011079800a6
:1023bc001e007800a05e88001e0078009e00900031
:1023cc00010878001e0090000008b0008000780022
:1023dc001e0078001100980081c3a90081a3a900f8
:1023ec008183a9008163a900013820009140780005
:1023fc00f0ccb30000c0600080e3b70001382000cf
:10240c0091407800c0cfb30000c060000014a00061
:10241c0080e3b70083e3a9002138200091407800c5
:10242c0000c8b30000c06000d040b30082e3b70026
:10243c001e00780010007800800078000000240056
:10244c0000805000201c88001e00780010009000b6
:10245c00800078000000240000805000301c8800b0
:10246c0000302000401c8800f0072000501c880021
:10247c0040742000001988000000eb00101988003f
:10248c0000012000201988000000eb004019880092
:10249c002c03a9000000eb00801988000000eb0061
:1024ac005008880070382100700888000080fa00fd
:1024bc00000006000200fa00000f78009e00780071
:1024cc000000eb00a00098009e0078001000200097
:1024dc00b00098008480a9009480a80081e3a80033
:1024ec0021e3a80013e1a8000080fa000000060018
:1024fc000200fa00000f78009480a90081e3a90083
:10250c0021e3a90013e1a9000080fa0000000600f5
:10251c000c00fa0020079800310798004207980039
:10252c002e009000200090000000e000040032001b
:10253c002e00900010007800500798000300370020
:10254c002e00900010009000500798005e00900044
:10255c0010079800ce00900000082000808f5000db
:10256c000200340000082000400798000000eb0037
:10257c00000f78000d0037001e00780000004000ae
:10258c00800078003e009000008140001e00780022
:10259c0000004000800078001e0090000080400089
:1025ac0010007800000978001e0fe8004e00900023
:1025bc009e0f1000f0ff35000400fc00ae009000f0
:1025cc0010002000b00098000000fc000080fa0011
:1025dc00000006000200fa00000f78001e007800d0
:1025ec00300090000080fa0000000600809fbe00c2
:1025fc000000fa008480a900a15e8000a05e80002b
:10260c00200090000000a200a0009800a15e8000b5
:10261c000000eb00b00098000080fa004f00be00f4
:10262c0000400600800278000103780082037800e5
:10263c000700e0001e00340035007800030028007d
:10264c0083006000c808de0000f0a7000000ea006c
:10265c00b3f727000300e100010039000300780004
:10266c0043082000030040000081cf000b00310024
:10267c00930020000281510001003b000001eb009f
:10268c00e30141000302de00f300200003026200bc
:10269c004411dd0002027200010272000480ea00a3
:1026ac00f00fb200005b78008703e900e2ff3a000c
:1026bc000000060080027800010378008203780095
:1026cc000700e00015003400354078000080ea0077
:1026dc000308200083006000030720000301600052
:1026ec004411de000281e800f300200003026000c8
:1026fc00700272000402d0000402e8000222dd0025
:10270c0043082000030252000170a7000402ea00f3
:10271c00041b78008703e900ebff3a000000060079
:10272c008002780001037800820378000700e00043
:10273c0023003400350078000000e00002003a006d
:10274c00500520001b0037000300280083006000a8
:10275c00c808de0000f0a7000000ea00f3ff270025
:10276c000300e10001003900030078000081cf0074
:10277c00060031006910e10004003d0093002000c8
:10278c0002815100e3014100020037000001eb001f
:10279c00430020000302de00f3002000030262006d
:1027ac004411dd000202720001027200530d200080
:1027bc0003406a00005b78008703e900ddff3a0004
:1027cc000000060080027800010378008203780084
:1027dc000700e000190034000000eb0035407800e1
:1027ec00530d200000c06900030820008300600026
:1027fc0003072000030160004411de006f0260003b
:10280c004422dd00680042000200e00002003200b9
:10281c0003102000030040006110e10002003400ae
:10282c000201e9000200dd000170a7000000ea00cf
:10283c00001b78008703e900e7ff3a000000060060
:10284c000400fa00cda2a900cde2a900cdc2a900d6
:10285c00d1a2a800d1e2a800d1c2a800d302a8003e
:10286c00d322a800e402a900e422a900e802a900ee
:10287c00e822a9000000eb00805e88000000eb005d
:10288c00905e88002ca3a800c6a2a900caa2a8002a
:10289c006000b800008fbe0005003700000000008b
:1028ac0010002000010020001e0f40005e97480021
:1028bc00f07f200001002000be0f1000ae8f18002a
:1028cc00f6ff34000080fa00000006000200fa0057
:1028dc00d5c2bf00614060000004e00009003a006e
:1028ec00805e80000000e800805e8800805e8000d2
:1028fc00ec0f500007003a0010002000000f780089
:10290c00040037000000eb00805e88000000eb0044
:10291c00000f78001e0078000080fa00000006000e
:10292c000200fa00d5c2bf00624060000004e00063
:10293c0009003a00905e80000000e800905e88007c
:10294c00905e8000ec0f500007003a001000200051
:10295c00000f7800040037000000eb00905e880048
:10296c000000eb00000f78001e0078000080fa00d9
:04297c000000060051
:020000040000fa
:10298000d40b00000200000000000000d60b000085
:102990000200000000000000cc0b0000040000005a
:1029a00002000000840b8c000b00000000460000b9
:1029b00000020000000000000044000000020000cf
:1029c0000000000000080000b0030000000000004c
:1029d000d80b00000200000000000000d00b000037
:1029e0000400000000000000da0b000002000000fc
:1029f00002000000b00b0000b00b00001c00000043
:102a000000000000dc0b00000200000000000000dd
:042a100000000000c2
:020000040000fa
:042a14000000fe00c0
:00000001FF
