:020000040000fa
:080000000002040000000000f2
:020000040000fa
:100400000f932000007f24000001880000000000fe
:100410000a00070011000700000020000000e000b3
:10042000020032000000020000000000320d020055
:10043000010000000040da000000fe004440a90076
:10044000000020000000e000030032000000200057
:10045000a00188004440a8000000060080f32000ae
:10046000110020001500370062004000e0804800c5
:10047000910188009001ba0062004000e0804800cd
:10048000910188009002ba0062004000e0804800bc
:100490000002eb006028e10004003a000059eb0084
:1004a0008301e900fdff3e00040037006128e10000
:1004b000010032000082eb00050007009101880076
:1004c0001001ba000200e000e7ff3a00000005005a
:1004d000910188008002780062004000e0804800be
:1004e0003559ba008301e900080032002559ba00e5
:1004f0008301e900050032000400e000f4ff32004f
:1005000015d9ba008301e900f1ff3a0000000600a6
:080510008c0204000000000051
:020000040000fa
:0200000401f009
:04000800ffff0000f6
:020000040000fa
:0200000401f009
:04000c00f8ff0000f9
:020000040000fa
:0200000401f009
:040010007bff000072
:020000040000fa
:0200000401f009
:040014007fff00006a
:020000040000fa
:10000800600f0100600f0100600f0100600f010028
:10001800600f0100600f0100600f0100600f010018
:10002800600f0100600f0100600f0100600f010008
:10003800600f0100600f0100600f0100600f0100f8
:10004800600f0100600f01000c0d0100600f01003e
:10005800600f0100600f0100600f0100600f0100d8
:10006800600f0100600f0100600f0100600f0100c8
:10007800600f0100600f0100600f0100600f0100b8
:10008800600f0100600f0100600f0100d80a010035
:10009800600f0100600f0100600f0100600f010098
:1000a800600f0100600f0100600f0100600f010088
:1000b800600f0100600f0100600f0100600f010078
:1000c800600f0100600f0100600f0100600f010068
:1000d800600f0100600f0100600f0100600f010058
:1000e800600f0100600f0100600f0100600f010048
:1000f800600f0100600f0100600f0100600f010038
:10010800600f0100600f0100600f0100600f010027
:10011800600f0100600f0100600f0100600f010017
:10012800600f0100600f0100600f0100600f010007
:10013800600f0100600f0100600f0100600f0100f7
:10014800600f0100600f0100600f0100600f0100e7
:10015800600f0100600f0100600f0100600f0100d7
:10016800600f0100600f0100600f0100600f0100c7
:10017800600f0100600f0100600f0100600f0100b7
:10018800600f0100600f0100600f0100600f0100a7
:10019800600f0100600f0100600f0100600f010097
:1001a800600f0100600f0100600f0100600f010087
:1001b800600f0100600f0100600f0100600f010077
:1001c800600f0100600f0100600f0100600f010067
:1001d800600f0100600f0100600f0100600f010057
:1001e800600f0100600f0100600f0100600f010047
:0801f800600f0100600f01001f
:020000040000fa
:10020800600f0100600f0100600f0100600f010026
:10021800600f0100600f0100600f0100600f010016
:10022800600f0100600f0100600f0100600f010006
:10023800600f0100600f0100600f0100600f0100f6
:10024800600f0100600f01000c0d0100600f01003c
:10025800600f0100600f0100600f0100600f0100d6
:10026800600f0100600f0100600f0100600f0100c6
:10027800600f0100600f0100600f0100600f0100b6
:10028800600f0100600f0100600f0100d80a010033
:10029800600f0100600f0100600f0100600f010096
:1002a800600f0100600f0100600f0100600f010086
:1002b800600f0100600f0100600f0100600f010076
:1002c800600f0100600f0100600f0100600f010066
:1002d800600f0100600f0100600f0100600f010056
:1002e800600f0100600f0100600f0100600f010046
:1002f800600f0100600f0100600f0100600f010036
:10030800600f0100600f0100600f0100600f010025
:10031800600f0100600f0100600f0100600f010015
:10032800600f0100600f0100600f0100600f010005
:10033800600f0100600f0100600f0100600f0100f5
:10034800600f0100600f0100600f0100600f0100e5
:10035800600f0100600f0100600f0100600f0100d5
:10036800600f0100600f0100600f0100600f0100c5
:10037800600f0100600f0100600f0100600f0100b5
:10038800600f0100600f0100600f0100600f0100a5
:10039800600f0100600f0100600f0100600f010095
:1003a800600f0100600f0100600f0100600f010085
:1003b800600f0100600f0100600f0100600f010075
:1003c800600f0100600f0100600f0100600f010065
:1003d800600f0100600f0100600f0100600f010055
:1003e800600f0100600f0100600f0100600f010045
:0803f800600f0100600f01001d
:020000040000fa
:100518007f7f7f007f7f7f007f7f7f007f7f7f00df
:10052800ff7f7f007f7f7f007f7fff00ff7f7f004f
:10053800ffffff007fffff007fffff00ffffff00bf
:10054800ffffff00ffffff00ffffff00ffffff00af
:10055800ffffff00ffffff00ffffff00ffffff009f
:10056800ffff7f007f7f7f007f7f7f007fff7f000f
:100578007f7f7f007f7f7f007f7f7f007f7f7f007f
:10058800ff7f7f007fffff00ffffff00ff7fff006f
:10059800ffffff00ffffff00ffffff00ffffff005f
:1005a800ffffff00ffffff00ffffff00ffffff004f
:1005b800ffff7f00ffffff00ff7f7f00ffffff00bf
:1005c800ff7f7f007f7f7f007f7f7f007f7f7f00af
:1005d8007f7f7f007f7f7f007f7f7f00ff7f7f009f
:1005e8007fff7f00ffffff00ffffff00ffffff000f
:1005f800ff7fff00ffffff00ffffff00ffffff007f
:10060800ffffff00ffffff00ffffff00ffffff00ee
:10061800ff7fff00ffffff007f7f7f00ff7f7f00de
:10062800ff7f7f007f7f7f007f7f7f007f7f7f004e
:100638007f7f7f007fffff00ffffff00ffffff00be
:10064800ff7fff00ffffff00ffffff00ffffff002e
:10065800ffffff00ffffff00ffffff00ffffff009e
:10066800ffffff00ffffff007f7f7f00ffff7f008e
:100678007fffff007f7f7f007f7f7f007f7f7f007e
:100688007f7f7f007f7f7f007f7fff007f7f7f00ee
:100698007f7fff007fffff00ffffff00ffffff00de
:1006a800ffffff00ffffff00ffffff00ffffff004e
:1006b800ffffff00ffffff00ffffff00ffffff003e
:1006c800ff7fff007f7f7f00ff7fff007f7f7f002e
:1006d8007f7f7f007f7f7f007f7f7f007f7f7f001e
:1006e8007fff7f007f7f7f007f7f7f007f7fff000e
:1006f800ff7fff007fffff00ffffff00ffffff00fe
:10070800ffffff00ffffff00ffffff00ffffff00ed
:10071800ffffff007fffff00ffffff00ff7fff00dd
:10072800ff7f7f007f7f7f007f7f7f007f7f7f004d
:100738007f7f7f007f7f7f007f7f7f007f7f7f00bd
:100748007f7f7f007f7fff00ff7f7f00ffffff002d
:10075800ffff7f00ffffff00ffffff00ffffff001d
:10076800ffffff00ffffff00ffffff00ff7fff000d
:10077800ffff7f007f7f7f007f7f7f007f7f7f007d
:100788007f7f7f007f7f7f007f7f7f007f7f7f006d
:100798007f7f7f007f7f7f007f7f7f007f7f7f005d
:1007a8007fffff00ff7f7f00ffffff00ffffff00cd
:1007b800ffffff00ffffff00ffffff00ffffff003d
:1007c800ffffff00ffff7f007fff7f007f7f7f002d
:1007d8007f7f7f007f7f7f007f7f7f007f7f7f001d
:1007e8007f7f7f007f7f7f007f7f7f007f7f7f000d
:1007f8007f7f7f007fffff00ffff7f007fff7f007d
:10080800ffffff00ffffff00ff7f7f00ff7fff006c
:10081800ffffff00ffffff00ffffff00ffffff00dc
:100828007fffff007fff7f007f7fff00ff7f7f004c
:100838007f7f7f007f7f7f007f7f7f007f7f7f00bc
:100848007f7f7f007f7f7f007f7f7f00ff7f7f002c
:100858007fffff00ffff7f00ffffff00ffffff009c
:10086800ffffff007fffff00ffffff00ffffff000c
:10087800ffffff00ffffff00ffff7f00ff7f7f00fc
:10088800ffff7f007f7f7f007f7f7f007f7f7f006c
:100898007f7f7f007f7f7f007f7f7f007f7f7f005c
:1008a8007f7f7f007f7f7f007fffff00ff7fff004c
:1008b800ffffff007fffff00ffff7f007f7fff003c
:1008c800ffffff00ffffff00ffffff00ffffff002c
:1008d800ffffff00ffffff007f7f7f00ffff7f001c
:1008e8007f7f7f007f7f7f007f7f7f007f7f7f000c
:1008f8007f7f7f007f7f7f00ff7f7f007f7fff00fc
:10090800ff7fff00ffffff00ffffff00ffff7f00eb
:10091800ffffff007fffff00ffffff00ffffff005b
:10092800ffffff00ffffff007fffff00ff7f7f004b
:100938007fffff00ffffff007f7f7f007f7f7f003b
:100948007f7f7f007f7f7f007f7f7f007f7f7f00ab
:100958007f7fff007f7fff00ff7f7f00ffffff009b
:10096800ffffff00ffffff00ffffff00ffffff008b
:10097800ffffff00ffffff00ffffff00ffffff007b
:10098800ffffff00ffffff00ffffff00ffff7f00eb
:10099800ff7f7f00ffffff00ff7f7f007f7f7f00db
:1009a8007f7f7f007fff7f007f7f7f007f7fff004b
:1009b800ff7f7f00ffff7f00ffff7f00ffffff003b
:1009c800ffffff00ffffff00ffffff00ffffff002b
:1009d800ffffff00ffffff00ffffff00ffffff001b
:1009e800ffffff00ffff7f007f7fff007f7f7f000b
:1009f8007f7f7f007fff7f007f7f7f007f7f7f007b
:100a08007f7f7f00ffff7f007fffff00ffffff006a
:100a1800ffffff00ffffff00ffffff00ffffff00da
:100a2800ffffff00ffffff00ffffff00ffffff00ca
:100a3800ffffff00ffffff00ffffff00ffff7f003a
:100a4800ffff7f007f7f7f007f7f7f007f7f7f00aa
:100a58007f7f7f007f7f7f007f7f7f007f7f7f009a
:100a68007f7fff00ffffff007fffff00ffffff000a
:100a7800ffffff00ffffff00ffffff00ffffff007a
:100a8800ffffff00ffffff00ffffff00ffffff006a
:100a9800ffffff00ff7fff007fff7f007f7f7f005a
:100aa8007f7f7f007f7f7f007f7f7f007f7f7f004a
:100ab8007f7f7f007f7fff007f7f7f00ff7f7f003a
:100ac800ffff7f00ffffff00ffffff007fffff002a
:100ad800ffffff00ffffff00ffffff00ffffff001a
:100ae800ffffff00ffffff00ffffff00ffffff000a
:100af800ffffff007f7fff00ff7f7f007f7f7f007a
:100b08007f7f7f007f7f7f007f7f7f007f7f7f00e9
:100b18007fff7f007fff7f00ffffff007fffff0059
:100b2800ffff7f00ffffff00ff7f7f007fffff00c9
:100b3800ffffff00ffffff00ffffff00ffffff00b9
:100b4800ffffff00ff7f7f00ff7fff007f7f7f00a9
:100b58007f7f7f007fff7f007f7f7f007f7f7f0019
:100b68007f7f7f007f7f7f007f7f7f007f7f7f0089
:100b7800ffff7f00ffffff00ffff7f00ffffff0079
:100b8800ffffff00ffffff00ffffff00ffffff0069
:100b9800ffffff00ffffff00ffffff00ffff7f00d9
:100ba800ffffff00ff7f7f007fff7f007fff7f0049
:100bb8007f7f7f007f7f7f007f7f7f007f7f7f0039
:100bc8007f7fff007fff7f00ffffff007fffff00a9
:100bd800ffffff00ffffff00ffffff00ffffff0019
:100be800ffffff00ffffff00ffffff00ffffff0009
:100bf800ffffff007fffff00ffffff00ffffff0079
:100c0800ffff7f007f7f7f007f7f7f007f7f7f00e8
:100c18007f7f7f007f7fff00ff7f7f007f7fff0058
:100c2800ffffff00ffffff00ffffff00ffffff00c8
:100c3800ffffff00ffffff00ffffff00ffffff00b8
:100c4800ffffff00ffffff00ffffff00ffffff00a8
:100c5800ff7f7f007fffff00ff7f7f007f7f7f0098
:100c68007fff7f007f7f7f007f7f7f007f7f7f0008
:100c78007f7f7f007f7f7f007fff7f007fffff00f8
:100c8800ffffff00ffffff00ffffff00ffffff0068
:100c9800ffffff00ffffff00ffffff00ffffff0058
:100ca800ffffff00ffffff00ffffff00ffffff0048
:100cb8007fff7f007f7fff00ff7f7f007f7f7f00b8
:100cc8007f7f7f007f7f7f00ffffff00ffffff0028
:100cd800ff7fff007fffff00ffffff00ffffff0018
:100ce800ffffff00ffffff00ffffff00ffffff0008
:100cf800ffffff00ffffff00ffffff00ffffff00f8
:100d0800ffffff00ffff7f00ff7fff007f7f7f0067
:100d18007f7f7f007f7f7f007f7f7f00ff7f7f0057
:100d28007fffff007f7fff007f7f7f00ff7fff0047
:100d3800ffff7f00ffffff00ffffff00ffffff0037
:100d4800ffffff00ffffff00ffffff00ffffff00a7
:100d5800ffffff00ffffff00ffffff00ffffff0097
:100d6800ff7f7f00ff7fff00ff7fff007f7f7f0007
:100d7800ff7f7f007f7f7f007f7f7f007f7fff0077
:100d8800ff7fff00ffffff00ffffff00ffffff00e7
:100d9800ffff7f00ffffff007fffff00ffffff0057
:100da800ffffff00ffffff00ffffff00ffffff0047
:100db8007fffff00ff7fff007f7f7f007f7f7f0037
:100dc8007f7f7f007f7fff007f7f7f007f7f7f00a7
:100dd8007f7f7f007f7f7f007f7fff00ffff7f0097
:100de8007fffff00ffffff00ffffff00ffffff0087
:100df800ffffff00ffffff00ffffff00ffffff00f7
:100e0800ffffff00ffffff00ffffff00ff7f7f00e6
:100e1800ff7f7f007f7fff007f7f7f007f7f7f00d6
:100e28007f7f7f007f7f7f007f7f7f007f7f7f00c6
:100e38007fffff007f7f7f007fff7f007fffff0036
:100e4800ffffff00ffffff00ff7fff00ffffff0026
:100e5800ffffff00ffffff00ffffff00ffffff0096
:100e6800ffffff00ffffff00ffffff007f7f7f0006
:100e78007f7f7f007f7f7f007f7f7f007f7f7f0076
:100e88007f7fff007f7f7f007f7f7f00ffffff0066
:100e9800ff7fff00ffffff00ffffff007fffff0056
:100ea800ffffff00ffffff00ffffff00ffffff0046
:100eb800ffffff00ffffff00ffffff00ffffff0036
:100ec800ffff7f007f7fff007f7f7f00ff7f7f0026
:100ed8007f7f7f007f7f7f007f7f7f007f7f7f0016
:100ee8007f7f7f007f7fff00ffffff00ffffff0086
:100ef800ffffff007fffff00ffffff00ffffff0076
:100f0800ffffff00ffffff00ffffff00ffffff00e5
:100f1800ffffff00ffffff00ffffff007f7f7f0055
:100f28007f7f7f007f7f7f007f7f7f007f7f7f00c5
:100f38007f7f7f007f7f7f007f7f7f007f7fff0035
:100f48007fff7f007f7fff00ffffff007fff7f00a5
:100f58007f7fff00ffffff00ffffff00ffffff0095
:100f6800ffffff00ffffff00ffffff007f7f7f0005
:100f78007f7f7f007f7f7f007f7f7f007f7f7f0075
:100f88007f7f7f007f7f7f007f7f7f007f7f7f0065
:100f98007f7f7f007f7f7f007f7f7f00ff7f7f00d5
:100fa800ffff7f00ffffff00ffffff007f7fff00c5
:100fb8007fffff00ffffff00ffffff00ffffff00b5
:100fc800ff7f7f00ff7f7f00ff7f7f00ff7f7f0025
:100fd8007f7f7f007f7f7f007f7f7e007e7e7e0019
:100fe8007e7f7e007f7f7f007f7f7f007f7f7f0007
:100ff8007f7f7f007fff7f007fff7f00ff7f7f0075
:10100800ffffff007fffff00ff7fff00ffffff00e4
:10101800ffffff00ffffff007fff7f00ff7f7f00d4
:101028007f7f7f007f7f7f007f7f7f007f7f7f00c4
:101038007f7f7e007e7f7f007f7f7f007f7f7f00b6
:101048007f7f7f007f7f7f007f7f7f007f7f7f00a4
:101058007f7f7f007fffff00ffff7f00ff7f7f0014
:101068007f7fff00ffffff00ffffff00ffffff0084
:101078007fff7f00ffff7f007f7f7f007f7f7f00f4
:101088007f7f7f007f7f7f007f7e7e007f7f7f0066
:101098007f7f7f007f7f7f007f7f7f007f7f7f0054
:1010a8007fffff007f7f7f007f7fff00ff7fff00c4
:1010b8007fffff00ffffff00ffffff007f7fff00b4
:1010c800ffffff00ffffff00ffffff00ffffff0024
:1010d800ffffff00ffff7f007f7f7f007f7f7f0094
:1010e8007f7f7f007f7f7f007f7f7f007f7f7f0004
:1010f8007f7f7f007f7f7f007f7f7f007f7fff0074
:10110800ff7f7f00ffff7f00ffffff00ffffff0063
:10111800ff7f7f00ffffff00ffffff00ffffff00d3
:10112800ffffff00ffffff00ffffff00ff7f7f00c3
:101138007f7f7f007f7f7f007f7f7f007e7e7f00b5
:101148007f7f7f007f7f7f007f7f7f007f7f7f00a3
:101158007f7f7f007fffff00ff7fff00ff7fff0093
:10116800ffffff00ffff7f007fffff00ffffff0083
:10117800ffffff00ffffff00ffffff00ffffff0073
:10118800ffff7f007fffff00ffffff007f7f7f00e3
:101198007f7f7f007f7f7f007f7f7f007f7f7f0053
:1011a8007f7f7f007f7f7f007f7f7f00ff7f7f00c3
:1011b800ffff7f00ffffff007f7f7f007fff7f0033
:1011c800ffffff00ffffff00ffffff00ffffff0023
:1011d800ffffff00ffffff00ff7fff00ffffff0093
:1011e8007f7f7f007f7f7f007f7f7f007f7f7f0003
:1011f8007f7f7f007f7f7f007f7f7f007f7fff0073
:10120800ff7f7f007f7f7f00ffffff00ffffff0062
:10121800ffffff00ffffff007fffff00ffffff0052
:10122800ffffff00ffffff00ffffff00ffffff00c2
:10123800ffffff00ffffff00ffff7f007fff7f0032
:101248007f7f7f007f7f7f007f7f7f007f7f7f00a2
:101258007f7f7f007f7f7f007f7fff00ff7f7f0092
:101268007fffff00ffffff00ffffff00ff7fff0082
:10127800ffffff00ffffff00ffffff00ffffff0072
:10128800ffffff00ffffff00ffffff00ffffff0062
:101298007f7fff00ffffff007fffff007f7f7f0052
:1012a8007f7fff007f7f7f007f7f7f007f7f7f00c2
:1012b8007f7f7f00ffffff00ffffff00ffffff00b2
:1012c800ffffff00ffffff00ffffff00ffffff0022
:1012d800ffffff00ffffff00ffffff00ffffff0012
:1012e800ffffff00ffffff00ffff7f00ffff7f0002
:1012f8007f7f7f007f7f7f007f7f7f007f7f7f00f2
:101308007f7f7f007f7f7f007f7f7f007f7f7f00e1
:101318007fff7f00ff7fff00ffff7f007fffff0051
:10132800ffffff00ffffff007fffff00ffffff0041
:10133800ffffff00ffffff00ffffff00ffffff00b1
:10134800ffffff007fff7f007fff7f007f7f7f0021
:101358007f7f7f007f7f7f007f7f7f007f7f7f0091
:101368007f7f7f007f7f7f00ff7f7f007f7f7f0001
:101378007f7f7f00ffffff00ffffff007f7fff00f1
:10138800ffff7f00ffffff00ffffff00ffffff00e1
:10139800ffffff00ffffff007f7fff007f7f7f00d1
:1013a8007f7f7f007f7f7f007f7f7f007f7f7f0041
:1013b8007f7f7f007f7f7f007f7f7f007f7f7f0031
:1013c8007f7f7f007f7f7f007f7fff00ffffff0021
:1013d8007fff7f00ffffff00ff7fff00ff7fff0011
:1013e800ffffff00ffffff00ffffff00ffffff0001
:1013f800ff7f7f00ffff7f00ffff7f00ff7f7f00f1
:101408007f7f7f007f7f7f007f7f7f007f7f7f00e0
:101418007f7f7f007f7f7f007f7f7f007f7f7f00d0
:10142800ffffff007fff7f00ffffff00ffffff00c0
:10143800ffffff00ffffff00ffffff00ffffff00b0
:10144800ffffff00ffffff00ff7fff00ffffff0020
:101458007f7f7f00ff7f7f007f7f7f007f7f7f0010
:101468007f7f7f007f7f7f007f7f7f00ff7f7f0000
:10147800ff7f7f007fffff00ffffff00ffffff00f0
:10148800ffffff00ffffff00ffffff00ffffff0060
:10149800ffffff00ffffff00ffffff00ffffff0050
:1014a800ffffff007fff7f00ffffff00ff7f7f0040
:1014b8007f7f7f00ffffff007fff7f007f7f7f0030
:1014c8007fff7f00ff7f7f007fffff007fffff0020
:1014d800ffffff00ffffff00ffffff00ffffff0010
:1014e800ffffff00ffffff00ffffff00ffffff0000
:1014f800ffffff00ffffff00ffffff00ffffff00f0
:10150800ffffff00ffffff00ff7fff00ff7f7f005f
:101518007f7f7f007fff7f00ffff7f007f7f7f004f
:10152800ff7fff00ffffff00ffffff00ffffff003f
:10153800ffffff00ffffff00ffffff00ffffff00af
:10154800ffffff00ffffff00ffffff00ffffff009f
:10155800ffffff00ffffff00ffffff00ff7fff000f
:10156800ffffff007fffff007fffff007fff7f007f
:101578007fff7f007f7fff00ffffff007fffff00ef
:101588007fffff00ffffff00ffffff00ffffff00df
:10159800ffffff00ffffff00ffffff00ffffff004f
:1015a800ffffff00ffffff00ffffff00ffffff003f
:1015b800ffffff00ffff7f00ffff7f007f7fff002f
:1015c8007f7f7f007f7f7f007f7f7f007fff7f009f
:1015d8007fffff00ffffff00ffffff00ffffff008f
:1015e800ffffff00ffffff00ffffff00ffffff00ff
:1015f800ffffff00ffffff00ffffff00ffffff00ef
:10160800ffffff00ffffff00ffffff00ff7f7f00de
:101618007fff7f007f7f7f007f7f7f007f7f7f004e
:101628007f7f7f007f7f7f007f7f7f00ffff7f00be
:101638007fff7f00ffffff00ffffff00ffffff00ae
:10164800ffffff00ffffff00ffffff00ffffff009e
:10165800ffffff00ffffff00ffffff00ffffff008e
:10166800ffffff00ffff7f00ff7f7f007f7f7f007e
:10167800ffff7f007f7f7f007f7f7f007f7f7f006e
:101688007f7f7f00ff7f7f007fffff00ffffff005e
:10169800ffffff00ffffff00ffffff00ffffff004e
:1016a800ffffff00ffffff00ffffff00ff7fff00be
:1016b800ffffff00ffffff007fffff007fffff002e
:1016c800ff7f7f007f7f7f007f7f7f007f7f7f009e
:1016d8007f7f7f007f7f7f007f7f7f007f7f7f000e
:1016e8007f7f7f00ff7fff00ffffff00ffffff00fe
:1016f800ffffff00ffffff00ffffff00ffffff00ee
:10170800ffffff00ffffff00ffffff00ffffff00dd
:10171800ffffff00ffffff007f7fff007f7f7f004d
:101728007f7f7f007f7f7f007f7f7f007f7f7f00bd
:101738007f7f7f007f7f7f007f7f7f007f7f7f00ad
:10174800ffff7f007fff7f007fffff00ffff7f001d
:10175800ff7fff00ffffff00ffffff00ffffff000d
:10176800ffffff00ffff7f00ffff7f007f7fff007d
:101778007f7f7f00ff7f7f007f7f7f007f7f7f00ed
:101788007f7f7f007f7f7f007f7f7f007f7fff00dd
:101798007f7ffc00f3ece800e6e4e200e1e1e00032
:1017a800e0e1e100e1e2e200e4e5e600eaeef4006f
:1017b800fafe7a006f6a6600605d5b005a58520054
:1017c8004e4b480045413f003d3c3a003a3b3d0006
:1017d8003e4046004f5e6e00e8d1cb00c8c3bf0054
:1017e800bdbbba00babab900babab800b7b6b60043
:1017f800b6b6b800babfc500c9db6b00f1d0cd00e2
:10180800cdc3b900b5b6b300afafb300b5b5b70037
:10181800babec500c9cdd200dad9cd00cdd6d9001f
:10182800de6f460038362e00292d3600393d52002d
:10183800ccc2c900bfbac200da7564004e3b33009f
:10184800312e2b002a2b2c002d2c2b0029241e0096
:101858001a17130012171a001d2536006bddcc006d
:10186800b8bbd6007cec560038353d003a363f0010
:10187800cebcc000b4aebb0052372e00201d2b00da
:101888003a49bc00a1989800979295009b9ea000a9
:10189800aabec100b8c2c500b0a7a600a7a3a500ec
:1018a800b9572f0022272f0035fdab009c989600d2
:1018b800929197009ca0ac00cd4e4c003f3b50004d
:1018c800c4b9b800b2b55200291d18001a1c1f006f
:1018d80033c3a9009f9b98009a9ea500b658320072
:1018e8002a2825002731430061e4d7004424180042
:1018f8001215170017236700b4a79e0098999f0038
:10190800a4af58002e2925001f2430003d57ce00d3
:10191800c747250018141800191a2c00c7aba200d5
:101928009a9497009c9eaa00d83832002c262d0045
:101938004169d100c0c535001c171c001e1b2b00b7
:10194800b8a7a1009a9395009b9da400c13e3700bb
:1019580030282b004379e900c3be3a001d161a004f
:101968001c182200ceaca5009c9495009b9ca3005b
:10197800be3e360030282c003f537a00cbd02f00d3
:1019880019161e001d1a3000aea4a10099929600e7
:101998009d9ea600dc363800322a310056dcdc0079
:1019a800ce5c2300151a22001b1fd300a4a29f009f
:1019b80094929b00a0a1b3003c353e002e2b43001f
:1019c800dc5f4b004322130019231d0022cda00029
:1019d800a0a09600949ea600a6ba3500323f31001a
:1019e8002c3efb0046342b0019111b001f1e2f0034
:1019f800af9d9f009d959800a4acae00772e360051
:101a08004132330052763800291c1400191f1f0078
:101a180031ba9f009d9d970098a0ab00b1d33400c8
:101a280036493d003a52e6003e281b00151c1f00af
:101a3800203caf009f9d9b009598a100a9b1ef00a5
:101a4800323b52003c40e300df39230019191f00e4
:101a58001f27d000a79e9c0099969c00a5abbb00b1
:101a680049394b004d415500e8462a001b181e0015
:101a780022234600ac9f9d009b969a00a4abb4001d
:101a8800f3373e005c45430058452a001a171f00eb
:101a980024234600aa9f9e009b969b00a7adb400f6
:101aa8006f37410063423f004f3d2300181a25005d
:101ab8002326da00a49f9f009a969e00acadb90039
:101ac8004b384f00623e4000472f1d00171d27006e
:101ad8002331b300a19f9e00989aa600aeb0cc0017
:101ae8003c3d6000493c3d00342117001a25240084
:101af8002acca4009fa19b0098a2ae00b0bb4900cd
:101b08003b655a003b393400231718002527270066
:101b18006da59e00a29c98009fafb400b8573900ed
:101b280056773d00332f2400181823002c305b0013
:101b3800a89c9f00a09da200b6cbc8005f3b4600b2
:101b4800754c31002c251a001a2128002e5aab009a
:101b58009fa1a0009ea3b300c2c67300434c5c00c3
:101b68003f2d27001e1a1e00262b3c00bea5a100f3
:101b7800a39fa000aabac300ca644e006d593800da
:101b88002b241d001c22290032eaaf00a3a1a100ca
:101b98009fa5af00bcc3d900545a63004531280043
:101ba800221f2100292f4b00beaba300a3a2a30034
:101bb800aab4be00c8e16c0079553a002b24200075
:101bc80022262c003eccb100a8a5a300a4a9af00f2
:101bd800bac5d700f3f55b003f322b002623260059
:101be8002d354a00c6b0aa00a9a7a700acb6bd000b
:101bf800c2ccf100634b38002c282600272b330079
:101c080043dabb00aeaaa900aaadb300bac2ca00a3
:101c1800d6ea55003c302b0029282b00323f5e00c5
:101c2800c6b4ae00adadae00b3bbc000c6d37d0038
:101c3800513e33002d2c2c002d3340006bc6b800cc
:101c4800b0aeae00b0b4ba00c0cdda006e4a3a0009
:101c5800322f2e002e2f39004972cb00bbb5b200af
:101c6800b2b4b700bdc8d400ec5e46003a363400c2
:101c780032343a00465fdc00c6bbb800b8b8ba00d8
:101c8800bec7cf00d5ff4b003f3c390038393c0078
:101c98004559f000d2c4c000bfbebf00c4c8cf00c1
:101ca800de7c5a004b453f003f4547004d5cfe0037
:101cb800dbd2cc00c9c9ca00ccced400dbe76c00ab
:101cc800584e4b004b4b4d00515e6f00ebdbd5007f
:101cd800cfcccd00d0d1d800e6f17800675d5900af
:101ce8005b595b00666df500e4dfdd00d9d7dd00e8
:101cf800ddd7d900dfe7ea007c6766006b70720009
:101d0800feedf5007df8ed00e8e4df00dededf0043
:101d1800e4e5ec0077797c00747cff00faf1e900d7
:101d2800eaece600eaf0eb00ecf5fc00f4eaf0007f
:101d3800f7e5e6007e7af700f7fafe00f9edf9001c
:101d48007a797c00f3776c007c7b700078fd7800f2
:101d58006c6e7600747af900786a6b006b6a7500ad
:101d6800796d69006dfefb00fc7f6f0072716c007d
:101d780072746e0075f4fc00767e7d007b797900c4
:101d88007dfd77006a736f006a7a7c0075716f0059
:101d9800716d6d0076f57d006a6e75006f6f7e005f
:101da800eef9fd00eeeff7007d71ff00ecf0fb00af
:101db800fcf7f6007a7ded00effdf600f4f5f7008c
:101dc800f9edf60079f9f300fb7c7b007875fb00f0
:101dd800edf179007ef1fa00777a7f00fff9f900da
:101de800faf6f000e9ecf300f4f2ef00f1eff3009b
:101df800f8f0ef00f27a7e00f3fe7e007f7c7d0033
:101e08007a7b7c007bfef900f7f6f900777477009f
:101e18006d6b6b00676e73006d6f7300756e6c0091
:101e280077757200716d71007678760078776f003b
:101e380079f67f00767dfb00fbfcf900fb7ff8005c
:101e4800f7fdfc00f4f3ff007879f600f5747200f2
:101e58007efb7e007bf3ee00fd7ff800fbfe7e003c
:101e680079757b00fd7e7e00fcf87e00747b7c002b
:101e78007cfafd00787b7c00fcf2f800ff726d00b4
:101e880076756e0071716d006c696e00f6f57600fe
:101e98006ffb7900636bf8007d6b7800f77e750047
:101ea800726f6a006b76fe0079707a007e6f6d0043
:101eb800fdfd7200f8f77600fd796f00ff7e710076
:101ec8006d6d6f006b70770076f97b006d73750030
:101ed8006c757d006f6c6b006e74f900fa6d78009c
:101ee8007f6f6f0077fd7b0071737b007a7d7500d3
:101ef800686d6c00686e7200fe7b6e00767c700008
:101f080071f3f500776c6d00faf974006f746f0067
:101f18006b696300fde1e800e9e5e700f3786b0031
:101f280073edef0074f8ea007d6a6500696f6e0072
:101f38006b6a6e006b676600676468006a5f5e00c4
:101f48006266670067676700675e5d005c5b6600e6
:101f5800676461005d5e5e005d5d6000615f6100f9
:101f6800625c57005a6265005f5f63006b6c6c00cf
:101f7800656061005c5f63005c636700656d7700a6
:101f88006a6cfd00737efd006a6661006971750008
:101f9800f3f679006e6c7b00fe6e7b00ef746d00cb
:101fa80077727c00fdfff300796ff500e9eaec0039
:101fb800e7ddde00e9f1ed00e9ebf100eee7eb002b
:101fc800e9dede00dfdede00dfe2e200dddbdd0091
:101fd800dedbde00dfdcdc00deddde00dfdede0097
:101fe800dddae000e6dedf00e7e2de00e0dedb006f
:101ff800dee0df00dbd6e400ecdfe000e1e4e8004f
:10200800eceaeb00ececf900f5eceb00e8e8e200b8
:10201800e0edf600eef97100757bfd00f9f6ea00d7
:10202800ef7dfd00f5eef6007577fe00f9f6fa0093
:10203800797773006b6b70007d726d007e78660037
:102048006572fb00f6fb77006a78ee00eff8750022
:10205800fefd680065727a00f9ecec00ee766e0021
:10206800fc756b006f6f760070686e007778fa0009
:102078007670f600eee97d006b797500717d790068
:1020880071797a00726c6d0073f9f000efe8f30073
:1020980072fded00fe6c6e0075707200fbfdff00b6
:1020a8007d6b6500626060006ffe6900666e7e0091
:1020b800effd6e006e6f61005e676c006ffef200f0
:1020c8006f79f700787a67006df162005b676a00e4
:1020d8006f6a6700fdedfe0077fde600f6657700a4
:1020e800766e660065fc7b00736e7300f6ff780001
:1020f800fb75640079ec7a006d68fd00e6f5f60082
:10210800f0fe720070fcfb006d5f6b00eb73640007
:102118007a6e69006d75790075676d00e6f0f200fa
:10212800e8f7ef00fd79fb007c79ef00e27c6e00b8
:10213800effa78006ffce800eefefa00eee6eb003e
:10214800747ced00f7f7f800f7f7f900e4e7f00022
:10215800eae8e500eef3fb0077f1ef00f4f7ef00b3
:10216800ef727700fbf0ed00ff75fc00fb6e74006a
:10217800796d6f0073efee006c7a78006678fd0079
:10218800767d7c007b7ef100f5747700766d7400b7
:10219800f7776a006f6f6e007b797d00756c710050
:1021a800746e6d00f6eef9007974f600f56c69004e
:1021b8007b766b00737173007dead000cbcccf00c7
:1021c800d7eb5e00514d4d004e505a00676b7000c2
:1021d800ebe7f800ebdfe500edebe900eef4f300e8
:1021e800f4faf900edf075007dfa740078f3ec006c
:1021f800f2eee800ebe6de00dbdada00dbdde50034
:10220800eef37c006b625f0061686f0078f0e100bc
:10221800d8d4d200cfced100dbfb62005a55510092
:1022280051514f00545e6a0071eddc00d9d9da00d3
:10223800dadef0007b6e610059575b006168770059
:10224800eaddda00d7d4d700dbe0e800ee7b6e00e9
:102258006e747700727af700edeae600dddbdd00e8
:10226800dddfe200eaefed00f57b75007a7e7600af
:102278007defe600e4e3dd00dadbdc00dbdbe10038
:10228800eaebf300797178007d7bfe00eee4df0075
:10229800dfdbd900dbdfe000e4ecf600fe7d7a004e
:1022a80077ffef00eae6e000dededf00e2e7ee00bf
:1022b800f97b760073767e00f4ece900e8e7ea0043
:1022c800f3796f006c676200656b7400f8e9e200ef
:1022d800dfdfe500ef7b6b00615b5800595b5f0057
:1022e8006b7afa00eee5e200e8f4fd007a6c64002f
:1022f80062646500676d73007470700072706d00c1
:102308006e72710076fdf300eeeeed00eef87c00e3
:10231800726a63005f5f5f0060687400fff2e80044
:10232800e3e4e500e7eaf400786e6a0068656400b3
:10233800676b7300fdefe900e4e2e100e4e7ec001d
:10234800f47e7700726d6b006c6f73007cf8ef00a1
:10235800eae7e500e5e7e900edf2f700fd7e7c003d
:102368007a797d00fcf6f000eeecea00ebebec008d
:10237800eef1f600fafcfe00fffffe00fbf8f700a6
:10238800f5f1f000f2f4f700fcfe7f007e7e7d00a0
:102398007d7ffe00fbf7f400f0f2f400f3f5fa009d
:1023a800fcfafb00fe7e7e00fffdfd00fbf8f70057
:1023b800f4f1f000f1f3f400f7f9fb00fcfbfc008a
:1023c800fcfbfc00fdfcfb00fdfffe00feff7f00a8
:1023d8007ffefe00fefbfa00fbf9f600f4f3f000c6
:1023e800f0f1f300f6f7f900faf9f600f5f7f7005f
:1023f800f7f8f700f3f2f200f3f2f200f2f3f40068
:10240800f6f7f400f3f5fa00fdfeff007fff7e000b
:102418007d7eff00fefdfb00faf9f800f5f0ee0006
:10242800ededed00edeff400fa7a70006a635d00ff
:10243800574e4e005a5d6100efd6d000d0cbca008f
:10244800d0d9de00f55d560057524f00565f69003f
:102458007ae2d900d8d8d700dcee75006a5c54005f
:102468005354540056617500f7e5da00d7d8d80000
:10247800d9dfed00fa7362005a5652004e4b420003
:102488003d4654005062ce00c3c6c100bbbfcf005a
:10249800d4dd5a00494c4c00464b6500fceed40094
:1024a800c8cacf00cdd2f1005e5b5200494a500045
:1024b8005559fd00d7d5d200cbccd500d8d4de00f5
:1024c8007cfe7b006058590052443b0035343d0087
:1024d8004349e800c0bab900b3b1ba00c5cbfd00a2
:1024e800484143003d3e4d0065f1c900bbbbbb0000
:1024f800b8bcc900d8fa4b003c3931002b2727005b
:102508002f3d4300d1b1ac00aca9a700b0c4cf00a7
:1025180052352f003133350046d7bf00b3abaa0080
:10252800adafb600ca533d0032292400221d1c005d
:102538002b3f3f00c1a39e00a39f9d00abcdd600bb
:10254800442823002b2c2b004db4b000ab9f9f00d8
:10255800a9afb000d03a33002e231e001f1e18006a
:102568002256450067a29a009fa19900a0cfdd00de
:10257800e92b1f0029372f003bb9ad00b0a9a100f6
:10258800a8b8b700bf423100332c21001f211c001e
:1025980018203e0048e3a3009a9d9e00999eb8002b
:1025a800caea3000292e3100313ece00bfbcad0052
:1025b800a9aeb500b7c74800392f23001d1d1b0061
:1025c80015192c003e57a90099989a009799a800c8
:1025d800bdca47002a272f002f2e4600c9bfb800c2
:1025e800aaa8b000b4b7e2003c2f26001d1a1b00b1
:1025f8001a181f003edfb8009f9899009b9a9e000a
:10260800b3ccd2003e2b2f003b363a00e3bdbd00d1
:10261800b5abad00b9becb004a2f26001f1c190070
:1026280016161e002d40b9009f98970096969c009c
:10263800a9b3c8003c2d2e00302e360061c4bc0062
:10264800afa9ab00b2b9c800482d23001e1a170065
:1026580015151b002a40bc00a198950095969a0074
:10266800a4b0c0004a2e2d00313034004dc7ba0046
:10267800b3aaaa00b1bac3005a3125001f1c18001a
:102688001615170020316700ae9d970096969700a3
:102698009ca7b100ca3e2f00303130003a6cc2000e
:1026a800b9aea900acb3bb00cb4a2d00231f1b0059
:1026b8001816160019223300e6ac9d00979696006e
:1026c800979da600b0ca400031313300323963000b
:1026d800c3b9b000aaabb200bccb4b002e2420007b
:1026e8001c18170017191f002e5eb300a29a970036
:1026f80097989c00a2adbd005f393500353438008d
:1027080046d9bf00b7afae00b0bac80068382900d4
:10271800231f1b001a1a1a001d273900d4afa20064
:102728009c9a9a009b9ea600afbe6d003f3b3a0064
:10273800383b4800f9c6ba00b6b3b500bdcd56005f
:10274800372b2500211e1c001c1d21002a3ae300fe
:10275800b6a79f009d9c9d009fa5ad00b6ca5a00d4
:1027680048413d003d446000d8c8bd00babcc00027
:10277800cc6d3d002e2b2700221f1f0021242b008b
:102788003758c500b1a8a300a1a0a100a5aab00010
:10279800b9ca7800524a4500444c6300edd8cb00d2
:1027a800c8ccde00684d3a00312f2c0029272700bd
:1027b8002a2d33003e62ca00bab0ab00a9a8a9000e
:1027c800aaadb200bbc6d90067514a00494c5200b5
:1027d800607ce700e3ed7a005e4d40003a39360050
:1027e800312f2e002f3336003d4d7700cfc0b80073
:1027f800b2afae00aeafb300b8bdc700d9796300c1
:102808005d544f0059686d0074ff7d006b5c540087
:102818004c443e003d3b390037383a003d414b00bf
:102828005ee0cd00c3bcb800b6b5b600b7bbbf000c
:10283800c7cdda00f1716b00615d62006f736d00e6
:102848006d706a005c5552004d474400413f3d00a1
:102858003c3d3f00434853006fddce00c7bfbc007e
:10286800bbbcbd00bec3ca00cfd7e6007b737700f0
:102878006f6b6b0071746b0065605b0056524f00a4
:102888004c48460044423f003f4147004a4e5a00e8
:10289800fedcd100cac4bf00bfbfc100c3c7cd00a2
:1028a800d4dae400f1f5f8007d776f006e6d67000b
:1028b800616162005e59570056524e004c4b4a0007
:1028c800494a4d0051596500f7ddd300cdc8c40011
:1028d800c3c3c500c6c8cd00d3d8dc00e4ecee0005
:1028e800f57f7600706d6a00656462005f5b580072
:1028f80057524e004c4b4b004a4b4d0051565e0010
:1029080079e0d600cfcbc800c6c7c800c9cbcf0076
:10291800d7dbdf00eafafd00fb796c006867660028
:10292800606062005d59570054514e004d4c4b0099
:102938004a4b4d004f545a0066f4e000d8d2ce00fe
:10294800cbcacb00ccced200d5d9df00e7eefb0056
:10295800787876006f6b680067645f005d5d5c0087
:102968005a575400504e4e004e4d4e0052595e007c
:1029780069f7e000d9d4cf00cccbcb00cccdcf00c9
:10298800d1d5d900dee3e900eceff7007f777100dd
:10299800716e6700636361005e5b590057545100b4
:1029a8004f51510053595d00606afa00e4dcd700ca
:1029b800d3cfce00cececf00d0d3d800dde4e9000f
:1029c800effd7b007a6f680065666600615f5d00f9
:1029d8005b59570055524e004d4e4e004d4e51001a
:1029e800575c66007de6dc00d8d2cf00cececf00a3
:1029f800d0d3d700dce1e800eaf07f0075757600f7
:102a08006f6e6e006b6763005f5d5b00575350002d
:102a18004f4e4e004e5054005a647a00e9ded900f9
:102a2800d1cdcc00cbcbcc00cdced100d4d8dd00dd
:102a3800e2e7ea00edf1f6007f7571006e69650066
:102a4800625f5d0059545100504f4e004f51540081
:102a5800585f6f00f5e5da00d2cecb00cacacb00ca
:102a6800cdcfd100d5dce400eaecf000fb7d7f009f
:102a78007c716b0069655d005b5a5700524f4e00d0
:102a88004d4b4a004b4d4f00545962007ce6da002a
:102a9800d2cecc00cac9cb00cdd0d700dde2ea0047
:102aa800f2fb7e007c7b76006f6f6e0067615e00d4
:102ab8005c585600524d4b004b494700484a4d0060
:102ac800515b6900f1dcd100ccc8c600c5c5c8009f
:102ad800cbced400dce4eb00f1f97e0074797e0003
:102ae8007c7e79006f6961005c544e004c4a470057
:102af80045454600484c51005b6de200d2cbc7000b
:102b0800c2bfbf00c1c2c600ccd4db00e9fc730061
:102b1800707374007af9f000f2fc7d006e5c54006a
:102b28004f4b450042413f003d3e4400484b550055
:102b3800f9d7cc00c6bfbd00bcbcbd00bfc6cd0028
:102b4800d8e47d00625c5f00686a7600efeaed0019
:102b5800f6796300534a45003f3c3b00393838005a
:102b68003c434b005cdec900bfbbb800b5b5b7003d
:102b7800babec400d0dff100665857005f6d75001b
:102b8800ecdbd700d8dce7007b5e4e00443e3a0021
:102b980037343200323439004255e300c7bab40042
:102ba800b0aeae00afb4ba00c0cde100715c530066
:102bb800515662007ae7d500cccacc00d2df730048
:102bc80052443c0038332f002e2c2b002e37410066
:102bd8005aceb900afadab00a9abae00b5bdcb00c6
:102be800f9544c0049474a00567fdc00cfc7c10062
:102bf800c4c9cf00e65746003e372f002d2b2a00c8
:102c080028272c0036417700beaea900a8a6a5004b
:102c1800a9afb900c5fb4800413f3f00444e7a00c8
:102c2800d4c7bc00babbbd00c2cd75004b413a0049
:102c3800312c2a0028262400252c37004cc8b00047
:102c4800a8a3a200a1a4aa00b2bfdf004a3c3b008f
:102c58003d3f470065cec200bdb8b600b7bdc7004e
:102c6800d75943003b332d002b282500222124006f
:102c78002c395f00bbaba400a09f9f00a4acb70099
:102c8800cb563c00363639003e4cec00c6bbb6008d
:102c9800b4b6b900bfcd72004a3e3900322d2b00c0
:102ca8002925220020222a00344ebf00aca4a0000f
:102cb8009f9fa500acb8ce004e39330033353b009a
:102cc80048fdc800bcb5b300b7bac000d060460024
:102cd8003d3932002d2c2a002724220023293300d5
:102ce8004cc3ae00a59f9f009fa2a800b1c27b0065
:102cf80040373500353c480060ccbc00b5b2b30065
:102d0800b6bdca00e55543003b3832002d2c2a00d9
:102d18002624230029314100cfb2a800a29f9e009b
:102d2800a0a6ad00b8cf4c003b383600394252005f
:102d3800dfc5ba00b6b5b600bac0ce00704d4100c6
:102d48003b352e002d2b2700242327002e385b002f
:102d5800beada600a29fa000a5aab000beee460088
:102d68003d3836003b455800e6c8bc00b9b9b90043
:102d7800bcc5d800684c3f003a352f002d2c2a00de
:102d880028282c00343f6d00bfafaa00a8a5a500d5
:102d9800a8acb200bcd35b004a423f004148540093
:102da80072dacc00c8c4c300c9d5ee005d4c45003a
:102db800413e3b003b3a390038383c00434b560013
:102dc800e6c9c000bdb9b500b5b7b900bcc1cc00f3
:102dd800d9e6fa0076faea00e7e5e000dfe7f20074
:102de800fa786800615f5d005958580056545300de
:102df800535250004f51530054565b00616a76009d
:102e0800f7eae100dddbd800d7d5d300d1d0cf0079
:102e1800cfd0d200d5d8dc00e2ecf8007b6e680099
:102e2800635f5d005b59570056535100504f4e0089
:102e38004e4f5100565b61006ff0e000dad4d000cd
:102e4800cecdcc00cccccc00cdcecf00d2d5d800c6
:102e5800dde3ec00f77a6f0068625e005d5b5900a5
:102e6800575655005554540054545400555759005a
:102e78005d61680076f1e700dedad600d3d1cf00d5
:102e8800cfcfcf00d0d2d500d8dce200eaf7790066
:102e98006e6760005d5b59005756550054545400e6
:102ea800545453005252520053545600595d620014
:102eb8006a77f300e7e0de00dbdad900dadadc0073
:102ec800dddfe400eaf37c00726b64005f5d5b00a9
:102ed80059585800585858005757580057575600cf
:102ee80056565600565758005b5e63006a74fc00dd
:102ef800f0e9e200dfdddc00dbdbdd00dedfe20045
:102f0800e7eaef00f97c75006f6b680066646300a0
:102f180062605f005f5f5f005e5e5e005e5e5e0037
:102f28005e5f600062656a006f79fb00f1ece700a4
:102f3800e4e2e000dedede00dedfe000e1e4e800ff
:102f4800ebeef400fb7d7600726e6b00696766003d
:102f58006564620061615f005e5d5d005e5e5e00eb
:102f6800606467006d767f00f6f0ec00e8e6e50047
:102f7800e3e2e100e0e1e200e5e7ea00eceef2007e
:102f8800f97f7900736f6d006a6867006665640091
:102f98006464640064646400646567006a6e740055
:102fa8007cfbf300ece8e400dfdedd00dcdcdd00c8
:102fb800dddddd00dedfe000e2e5e800ebeef2005b
:102fc800f9fe7e007a7471006e6a690069686800ab
:102fd800696a6b006d6e75007ef8f200eeeae50036
:102fe800e1dfde00dddcdb00dbdbdc00dcdcde007f
:102ff800e0e3e600ebeff700ff7a74006f6c6a001d
:10300800676565006362620062646600686b6e00f3
:1030180074797d00faf3ee00ebe9e600e4e3e300ff
:10302800e2e2e300e6e7e800eaedef00f2f5fa0095
:10303800fe7e7c0077726f006d6a690068676600c3
:10304800686869006a6c6e006f7379007efcf9002d
:10305800f6f2ef00efedeb00eae8e700e8e8e90058
:10306800e9eaec00edeff200f7fbfc00fe7f7d00e3
:103078007c797500727373007272730073747500d3
:10308800797d7e00fefcfb00fbf7f200eff0ef001d
:10309800eeeeee00eeeff100f1f2f500f7f6f800d3
:1030a800faf9fb00fefffe00ff7e7d007d7d7b00c0
:1030b80078777800787779007a7a7a007b7b7a005b
:1030c8007b7d7d007c7b7d007fffff00ffff7f0015
:1030d8007d7d7e007e7e7d007d7d7b007b7c7b0010
:1030e8007a797800797b7a007a7979007979790028
:1030f80079797a007c7d7d007e7f7e007d7eff0071
:10310800ffffff007f7f7f007ffffe00ff7ffe0045
:10311800fdfefe00fdfdfe00fefefd00feff7f0041
:103128007f7fff00fffefe00ff7ffe00fdfefd002b
:10313800faf9fb00fbfcfd00fdfdfe00fefffe00b2
:10314800fdfefe00fcfcfe00fefdff00fffefd0094
:10315800fdfefc00fcfdfd00fefe7f007e7f7f0083
:103168007e7e7d007e7e7f007e7d7b00797a7b007f
:103178007b7b7a0079797c007d7d7e007e7e7e0077
:103188007e7eff007e7d7d007e7e7e007e7d7d00d2
:103198007e7f7e007e7efd007d75e700de7766001f
:1031a800757e7b00f9f97900fcf178007ed3d000b8
:1031b800f3767c006a697d005e57fd00705b7200e3
:1031c800fa686800f8f0e900d5d8ff006a625a008a
:1031d8005b5a5500585f6500646ffd007aece200a9
:1031e800e7eaee00786761005d5b5d005d5c5f00ab
:1031f80069666c007f7b7d00faf0f80077fa7c0046
:103208006b6e70006a79fd006efeef00f9faec0053
:10321800ecfbe900ea7ef200f77eff00fffe7b0090
:10322800fe7c7e007f6ffa00f46dfd00ec6f6c0091
:103238007e7a6e007af1720072ed780066f1e8002d
:103248006972e8006f6ce800f76eef00ed676600e2
:10325800fc6c6400736c6d006f6b72006e6c6900bf
:103268006b76720079feed00f5fce800efe9e1000d
:10327800e2e5ef00dfe2f500eee9eb00faeff2003d
:10328800757e710068706c00606063005c5b620052
:103298005d5d66006d6f7e00efefdf00dee2d4005b
:1032a800d7dad200d0d5d800d3d9e200e5ef7e0036
:1032b80068605b00504e4d0049464500413f3f0065
:1032c8003f4049005360df00ccc3bd00b9b7b6002a
:1032d800b5b7ba00bdc3cc00dafb5e00524b49005b
:1032e800453f3e003c3937003330320034363c002d
:1032f800485cda00c2bbb400afaeae00aeb0b600f8
:10330800bac2d000ea6250004b494800494c52000a
:103318005b646a005f554a003f3931002f2e2d004b
:103328002f363c004bdfc400b9afad00abaaab00f1
:10333800adafb600bfcae5005a4f48004445470044
:103348004a4f5800606f6b005d4f44003a333200bb
:10335800302f34003a405b00d3c2b700afadac00a9
:10336800abadae00b2babf00ccec6700554a49001d
:1033780048474c004e5058005a524b00443a3400cb
:1033880034323000373c42005fd5c400b8b1af00da
:10339800adadae00afb4bb00bfcdef006d5249007c
:1033a8004945430048494a00504e4b00473e3700c4
:1033b80035363200353b3e004debcf00bfb5b2008d
:1033c800afadaf00afb1b900bdc5db00ef614d00d7
:1033d8004c484400484948004e4f4c004b423a0084
:1033e80037383600353b3e00496fd700c4b9b500c1
:1033f800b1aeaf00b0b1b800bcc1d200e16f5100ae
:103408004f4c4600484948004d4e4a004840390054
:1034180038393500373d3f004ef2d400c1b9b60007
:10342800b2b0b200b2b5bb00bfc8de00f65d4c005a
:103438004c484300484747004d4c4800473e380039
:103448003a3935003b3e420056f6d400c0bab700c0
:10345800b2b3b300b3b9bc00bfd0e00078504d00a0
:103468004a43460046454b004b484800403a3a001c
:103478003a363b003e425700f0d4c000bab7b2001b
:10348800b2b2b200b7babd00cbd8ec0057514d006c
:1034980045484800474d4e004c4d46003d3d3d00d7
:1034a8003a3e4300475de800d1c1bb00b7b3b20064
:1034b800b2b2b600b9bdc800d5e85d00534e4800a9
:1034c800494a4a004e4e4b00483f3b003d3b3a00bc
:1034d80040444e007fd9c800bcb8b500b2b2b200b3
:1034e800b4b9bd00c6d6ec005e4e4c004645470058
:1034f800474a4e004c4a46003d3b3d00393c41009e
:103508004455ee00d7c4bb00b9b4b300b5b4b80095
:10351800bdc3d100f4604e0047454200434849000e
:103528004b4b4700413c3c003b3a3e00444b6c004f
:10353800dacabd00b9b6b200b3b4b500babfc700a5
:10354800da775a004d484600444649004b4e4c0035
:1035580047403b003b3b38003d454d007cd2c50011
:10356800bab6b300b0b1b400b5bbc300cdf35700d1
:103578004f464200454448004e4e4d004a413a00ed
:103588003b3a38003e444b00f8d2c500b9b5b30009
:10359800afb0b400b5bbc400cefa56004d454200ea
:1035a800444348004e4f4e004a403a0039393600ed
:1035b8003b4149007bcfc300b8b3b100aeafb30005
:1035c800b4bcc800d55e4c00483f3f0043444a00a5
:1035d800524f4c00473b37003a36370041485f00ae
:1035e800ccc1b900afafae00adb0b400b9c6d6001b
:1035f8006d4b4600423e4200484b57005a4d47002b
:103608003c35380035343e00485bcc00beb7af00cf
:10361800adadad00afb6bb00c8ea5b0049403f00a6
:103628003f424a00505c5f004d4239003336320059
:1036380034424c00f8bfb700b1acab00adadb1003f
:10364800bcc3da00554741003d3e4200474f5f008a
:10365800695646003a303100312e39004a5bc500c0
:10366800b5b0ab00a8abad00afbbca00de5141009e
:103678003e3d3d00434e57006ef0580043372d0045
:103688002e2f2d003852ed00bdaeac00a9a7aa0020
:10369800afb3c100ee5d47003b3c3f003f4d6d00be
:1036a800f8dada00533e31002a2b2c002b3b690054
:1036b800cfb2a900a9a6a500acb3ba00dc4d4c0056
:1036c8003e3840004749f300cfd5cf00ed403100e8
:1036d80029262a0029306300c4b3a600a3a4a300a6
:1036e800a9b5bf00dd463f003e3a4000505fd90013
:1036f800c6c8cc007c3c2e0024212700292fef00cf
:10370800b8ada2009fa3a500abbcde00553c3900b4
:103718003d3e49006ddfca00c1cbd90051322800b7
:10372800201f25002935c500aea89f009ea5aa0028
:10373800b3d74c00413a3c004750ee00cec8bf001a
:10374800c4da62003a2920001d20290030fbac00b1
:10375800a5a09d00a1acb500d1463d003c3f560058
:10376800ebd0c000c0c2c300de4d3900291f1d00c8
:103778001f2b3500f0aaa0009f9ea200aec0fb0040
:10378800423c3e004cdec900c3bbbd00cace7f0030
:103798003f3228001f1c20002f3ecf00a69ea1000c
:1037a800a2a7b800ec4a40003e44ff00c1bdbf00dc
:1037b800bbc1e9006d4d38002c241f001d243a00c0
:1037c80063bca4009fa3a800b0cb4f003f404a00b1
:1037d80060cdb900b8c0c200cd604d0040352b00a7
:1037e800231f20002c4ecd00afa2a200a8aebe0021
:1037f800ec4b43004feccf00beb6bb00c6cf720007
:103808004f473b002f26210020284400cfb8a600b0
:10381800a0a7af00bdda4e00414edc00cabeb5001d
:10382800b7c7da00ec543f003a3227001f202a00bd
:103838003fd7b500a5a1a900afbe77004a475800f9
:10384800d9c5ba00b5bac900e65e4c00433c2f00a2
:1038580025212100294bc300b5a6a100a9b6cd009a
:103868006a4d440055cabd00bbb7ba00ce5a4e00d7
:103878004c4137002c2521002330e000beaea300c8
:10388800a4aec000e057470049e4bf00bcbbb80085
:10389800c17e52004e463c003028230021295200a8
:1038a800beb4a800a3aabb00e75b58004d61c100e5
:1038b800b7bbbc00becf5d004e4b4200342823008e
:1038c80023294300c0b1a900a4a9b700e7525600b4
:1038d8005565c600b5b6bd00bfcb5f004948470077
:1038e80036282200242b4300c2b0a800a5abba009a
:1038f800df5355005d7ec500b7b8bc00c1da5e0075
:103908004e473f002f231f002330dd00bbaea4002d
:10391800a5afc9005b4f530056dcbb00b6bbbf0068
:10392800c7fb4c0046423700281f20002a46c70024
:10393800b3a7a300abbce800554d4f00e8c0ba00e0
:10394800bbbcc100e5514b00473b2b0022212600a0
:1039580036cfb700aca6a700b1cd550054626700ba
:10396800d1bbb700bcc2d200795245003d2f25001b
:1039780020243300edbcad00a6a8b100cb5c5400f8
:103988005c6ccd00bab8bc00bfccec0059483b0019
:103998002d221f002536e100b9aca600a8b2c80048
:1039a8006a5358006acfbc00b9bdc200d0f55900af
:1039b80046382a00211f26003bd9bb00aba5a90029
:1039c800b7db6000594e5c00c9b9ba00bec6ce006c
:1039d800fc4b3f0033272000202b4b00c8b7ab001f
:1039e800a6abbc00f9585e005c77c800bbbabe0045
:1039f800cae065004a3c2f00241f2400316cc10036
:103a0800b2a9a700aec2f000645e6100e0c1b900cf
:103a1800bbc1cb00db593f003229230021273d00e1
:103a2800cdb7ac00a8aab300ca7c670075e4cb0088
:103a3800bcb8bb00c2d1fe004e3a2c00252226009d
:103a4800345fc300b1aaa900adbcd500e9eaf6000d
:103a5800e1c5bb00bbbfcc00da6a3f002e282600b8
:103a6800262b38005cbeaf00abacb000bac6dc0099
:103a780076f0ce00c1bebd00bfcf60003f30290048
:103a88002524270037bfaa00abb1b200b3c24f004c
:103a980044efc600cddaca00bfc8e70066583e004a
:103aa8002d2a2b002d2f3a0068beb600b5b7ba00f4
:103ab800becbda00dbd4ca00c5c2c300cce05d00cf
:103ac80043372f002e2f32003a53ce00beb9b5002f
:103ad800b4b9c000cacdce00d0cec900c8cede0071
:103ae8006b4b3d00373434003539480073d0c30080
:103af800bdbbbc00bfc5cb00cbcccb00cacfd70069
:103b0800e16c4d00413e3d003c3c3e004656ef0016
:103b1800d0c9c800c5c4c600c9cccd00cdd2da0012
:103b2800e5fd61004e4848004542420047505900b3
:103b380069eadb00d7d8d900d8d7d800dcdedc00aa
:103b4800deeb7d006f64560050505100545b5f00ff
:103b5800636ef800efefed00eae6e400e5e9e60061
:103b6800e6eaf200fbfa7900676268006b676700b3
:103b78006a696e00fbf8fb00f5f0eb00ebedee0078
:103b8800ede9e300e7f0ef00eaf57a00f9f2fa0070
:103b9800fdf5ee00eff8fd00faf4f300fd7a7f0082
:103ba800ff767400faf2f800fdfd7c00726d6f007c
:103bb800736e6a006a71790074737e00776c7300a3
:103bc8007a717200767378007d737200fefc7a0059
:103bd8007b7e7e00fe7b7700fef4f400fbfffe0098
:103be8007d7a7d00f9f0f000fa7ff900fafdf70020
:103bf800f8fbfc007d797b007a75770075767a0092
:103c080079ff7d00767a7b007679fe007c7afc006d
:103c1800fcfbfe00777478007f7a78007872720077
:103c280074737300797a7700777571007379fe0081
:103c3800f97d73007afe7a00787b7d007a787900c6
:103c480078787800746e740078736f0070777300fa
:103c5800727a790075787800797a6f00707b7900cc
:103c680077757200797d72006e6b6c00737b7b00d8
:103c780079726e0076fe7b00717778006e6e740044
:103c8800797a7b007e7c75006e6e7100757876009f
:103c98007a797100787d78007ffb7e0078777b00e9
:103ca800797975006f76790073767b007471750089
:103cb8007b7b700070faf8007ef9f900fd7a7500d8
:103cc800fefb7f00fcfbf800f9fcf700f8fafb00ac
:103cd800fdf8f700fafcfd007e7ef800f5f8f50027
:103ce800eeeeed00f47cfa00ece9ec00efeff50005
:103cf800f9f7f800efebef00edeefb00f6f6f90050
:103d0800efeff500f8f1f300faf5f300f3eeec004d
:103d1800eeedef00faf9f400fafcfb00f3edee002b
:103d2800ededed00ececf5007c7ffb00fdfefa000c
:103d3800f8f5ed00edf1f200f87a7c00f7fc780078
:103d4800797975006f76f600f57e7d00f9f8fe004a
:103d58007a747800feff7a007c7b6f006f787c00b5
:103d68007878fa00f87e770079fc7a00747b7c001a
:103d780079787d00fc7e7a0076727a007c75760010
:103d88007b7b7a007876ff00f8f87f00706e74000d
:103d980075747b00797278007d797b00fe787300fa
:103da80077716e007574710077fafe00727cf80006
:103db8007effff007a7e7e007a7c7e007d7efc009e
:103dc800fafe7a007978730077fbfd007b7a75003c
:103dd800787e7f007b7a7c007c786f006d6e730044
:103de8007b7b7b007a75fd00f9716d00726e6c004b
:103df8006d6f6f006f727b007e7978006f6c6f005b
:103e08006f6b6c006f706c006b7afa006d64690000
:103e18006e6d6d006e777c006d6b7a00786d730047
:103e2800786e7100fe7f7a007776fc00f47c700073
:103e3800797dfb00fb6f7500f0eef100fd7df10070
:103e4800f0f9f300f27ff200e9f77e00f4f4f500f0
:103e5800f8787900f9f7f900f4fbfc00f1f57e0039
:103e68007c7ff400f0fbf400eae9ef00f9fcfc00c9
:103e7800faf3eb00ee797800fafd7c00faf5fa0027
:103e88007e7dfe00fafe7c007b7dfd00797a7f0056
:103e9800fcf8f800f87a7100fefc76007ff5f70070
:103ea8007c78fe007efefc007df4f000fafd7d00cb
:103eb800f9edf600747376006e6d7900fd75760085
:103ec800f7fb740079f3f4007d78ff00786d7200d9
:103ed8007b7b750076fbf600faf7f3007a727900bf
:103ee800fcf6fe00f5eaec00eff3f900fe7ffe00b9
:103ef800f7f6f700f7f9fd007deeeb007e76ee00b1
:103f0800eaf6ef00eeefee00f8efea00eeebe8007d
:103f1800ef7b7f00ededfc007bfbf700f4f1ee009a
:103f2800f2f8eb00f2737b00f6f6760076f9f9000a
:103f38007efbf7007b706c006ffff800fa7a79005f
:103f4800fa7c6f006f6e70006e6a6b006f6d6d00ab
:103f5800797977006f6f7c006c677000746d690009
:103f680070716700686d7900726366006d68630040
:103f78006b7c6d00656d74006f686a006d666c001f
:103f8800796f6d00736d6900656aea00e46e5d0023
:103f98005b595e00625c5a005f79e500d5cfd000be
:103fa800cfcece00ced0d700dfe6e300e1e2e500d9
:103fb800e9eaea00e8e9ec00eef4f700f2eff400d1
:103fc800fe78740070706f006e6e6f0071767a0004
:103fd8007cfdfa00f8f5f300f2f4fa00fdfffe00ac
:103fe800fbfc7f00fefaf800f6f3f600f9f8f6009d
:103ff800f8fcfe00fdfdfd00fefeff007e7e7e005b
:104008007d7e7e007c7c7d007c7d7d007b7b7c00d2
:104018007a797a007875730074757600767576000b
:1040280078787700797b7b007c7d7d007c7c7d00c7
:104038007d7b7a007a7a79007b7c7b007b7c7d00b3
:104048007effff00fefefe00fdfdfd00fbfbfc0009
:10405800fefdf900f7f7f800f7f7f900f9f9fa00ab
:10406800fafafc00fcfbfa00f9f9fa00faf8f70092
:10407800f7f5f400f3f3f400f3f3f200f0efef00d8
:10408800efefee00efeff000efefef00efeff000f3
:10409800f0f0ef00eff0f100f0eff000f3f2f000d5
:1040a800f1f4f400f3f3f200f3f4f300f2f3f300a5
:1040b800f3f5f600f5f7fa00fafafa00fbfbfa0056
:1040c800fafafc00fefeff00fefeff00fffefe0007
:1040d800feffff00ff7e7c007b7d7e007e7fff0071
:1040e8007f7e7d007fff7e007efffe00ff7e7e00dc
:1040f8007e7e7e007e7d7d007d7e7f007f7fff004f
:104108007f7e7e007e7e7f007f7e7e007e7e7d00bd
:104118007e7e7d007c7d7c007d7c7a007b7b7a00c6
:104128007b7b7c007c7c7c007c7d7d007d7e7d00b3
:104138007b7c7c007c7b7b007c7e7d007e7e7f00a0
:104148007e7e7e00ffff7f007fffff007f7e7e0078
:104158007f7f7e007e7e7d007d7d7c007c7c7b0079
:104168007d7d7a007b7d7c007b7a79007a7b7c0080
:104178007c7d7e007e7d7c007b7a7900787a7b006e
:104188007a7a7800787a7a0079797800797c7b0075
:1041980078797b007a797b007b7b7d007c7b79005a
:1041a800767779007b7b7a00797979007a7c7c0054
:1041b8007d7e7d007c7e7f007e7eff00fffffe000f
:1041c800feff7f007e7e7e007e7f7e007e7e7f00fb
:1041d8007fffff00ffffff007f7f7f00ff7fff0063
:1041e800fefeff00fffefe00ffffff007f7f7e0058
:1041f8007e7e7c007c7e7f007e7e7c007d7e7c00d7
:104208007c7e7d007a7878007a7b7900797b7c00e7
:104218007b7b7c007b7b7b007a797900797b7d00d6
:104228007d7c7c007d7e7e007d7d7e007e7c7c00aa
:104238007d7c7a007b7c7b007a7a7b007d7e7d00aa
:104248007e7f7f007f7f7f00ffff7f007e7e7d0077
:104258007e7e7e007e7f7e007e7d7e007f7eff00ec
:10426800ff7f7f00ffff7f007ffefd00fefffe0057
:10427800fefdfd00fdfefd00fdfefe00fefdfd0055
:10428800fdfefd00fdfdfc00fefefd00fcfbfb004d
:10429800fcfcfc00fcfcfc00fbfbfc00fdfefe0043
:1042a800fdfeff00fefdfc00fcfdfd00fbfcfe002a
:1042b800fefdfd00fefefe00ffffff00fffffe000b
:1042c800feffff00ffff7e007e7e7e007e7f7e0079
:1042d8007d7d7e007d7d7e007e7e7d007d7d7d00f6
:1042e8007c7c7c007d7e7c007c7c7900797c7d00f8
:1042f8007c7d7d007d7d7d007e7e7e007e7e7d00d6
:104308007d7e7d007e7e7e007e7d7b007b7a7a00ce
:104318007c7d7d007d7e7f00fffefe00faf3ef00ce
:10432800eeefed00e7e3df00dddedb00d6d9db00f2
:10433800d9dbdd00e7f8f500746163006a6c66009c
:1043480066726f005f5c5c0058514e004e4f4d0026
:104358004e5053005655560059595a005c5f630039
:1043680065686c006c6d72006f6966006d6e640044
:1043780069787b0078fbe800e9ede700e1dfe10020
:10438800e2dbd800dbdbd700d0d0d700d5d0d40013
:10439800d7d6d500d2d3d500d1d3d400d0d5d80024
:1043a800d4d5db00e3dedc00e8e7e500eeef7f00d4
:1043b8007bfb6f00797f6a006f6f68006b6b68002a
:1043c8006d6f6d006e6c6e00716c6e00797c7b0099
:1043d8006e686e006f6662006c776700606e6f00d3
:1043e8005b575f00635c59005e6259005861610069
:1043f80059596400665d6100736a6200686e6c00fa
:104408006066fe00746b7500786e69006c706400fd
:104418005f696300595a60005f595b0060605e0025
:104428005e5e62006468710072f9e700e9e4dc002e
:10443800dde0dd00dee4e500e5e7e900f3f7fe0096
:104448006c625c005a544f004c4a490046464a0088
:104458004c525e0068e6d400d0cac700c7c5c40085
:10446800c8c8c900cbced100d3d8de00dfe2ea004d
:104478006e554c00483e3a003b3b3a003a3e4a00f3
:1044880055fdc600bcbbb600b3b4b900bdbec40080
:10449800cececb00cbcbc600c2c9cd00cddb6000f1
:1044a800483e3800312e2d002e2f300038476b0043
:1044b800cebdb300aeaeaf00b1b6bd00c5c9cf002a
:1044c800ddd3cb00cac6c200c2c5cc00da6946003b
:1044d8003a332d002a28280029292d003c5cd600d3
:1044e800b9acaa00abacad00b4c3cb00ceeb69004d
:1044f800ddcacc00c9bcba00bfc3c500d55742004d
:10450800382e2a002725230023252b003859c900d7
:10451800b2a8a500a6a9ad00b4c2db006f5a5c0022
:1045280074d8c800bfbbb900bbbcc100d37c510064
:104538003e312b0028242100212024002e46d600bd
:10454800b3a7a200a2a6a900b0c0d1007b4f4d001e
:104558005adbc800c2bbb700babdbf00cbe16500db
:104568004f3f32002c2a260021201f00222d400018
:10457800cfb0a600a09fa300a9b0c000e353490094
:104588004b59eb00d0c4bd00bcbebf00c6db7000f9
:104598005d4c40003d352d002a2621001e1e2500b9
:1045a8003241be00a8a29f009fa3ab00bcd06c0004
:1045b800413f4a0057fdcf00bebbbc00bbbecd008b
:1045c800765c4f003e3b3d003b312b0029251f0008
:1045d8001e26330043c2a7009f9f9f00a1a9bb00ce
:1045e800d3fc45003c465d0074d3bd00b9bcbb009c
:1045f800bcc9f20060503f003c403f00382f2c00ff
:1046080028211e0024313f00d3aaa0009f9e9f00ae
:10461800a6b4cb00df503e00445ef600d4bfba001b
:10462800babcbd00c5de670051443f003f3e3b00b9
:10463800322d2a00231f21002c3b6200b3a49f00c7
:104648009fa0a400afc7e2004f3d4600595ed900c5
:10465800bfbabc00bdbbc400eb645700433d3f007c
:10466800403e38002f2b26001f1f27003444c3006c
:10467800a79f9f009fa1aa00bbd95c003f3e4b00ab
:1046880057e8ca00bdb8bb00bcbdcf00775748008b
:104698003f3d4000433c35002e2a250020222f00b4
:1046a8003d5cb100a3a1a000a0a4af00c6d85500ee
:1046b8003c45720067dfbe00babbbc00bdc3e40066
:1046c800625a46003e404400403a32002c272200fd
:1046d8002028370044c8a900a2a1a000a2aab900b6
:1046e800cefa43003e555d005cccbc00bebfbc00aa
:1046f800bfd570005e4b3f003f413e003c372e0067
:1047080029252100222d3b0057b6a700a3a1a1000f
:10471800a6aebf00da5d4500434c56007dcec4000e
:10472800c2bfc000cbd9fa004f4845003f3f400008
:104738003b342e002a25220026323c0063b1a80013
:10474800a6a2a200a8afbc00cd5b43004e594f0003
:10475800f5c8c700c5bebe00c9dce2006546440016
:10476800453d3a00372f2a00262426002d3a4f00cf
:10477800bdaba700a5a3a600adb6c100df4e4a0099
:1047880053545c00dbcdca00c1bfc600ccd47d0049
:10479800524843003f3c3900332d2a0028262a007e
:1047a800353f7e00b8adaa00a6a6aa00afb7c400e0
:1047b800e359520055545a00e2ced000cbc3ca0088
:1047c800d1d969004f4b42003c3b3700312d2b00bb
:1047d800292a2f003b49d500b8afab00a8a9ab00e8
:1047e800aeb6bf00d2795a004f4d52005c76df005a
:1047f800d4cece00d1dcf9005f4f47003f3c3800f3
:1048080033302f002e313d004657c900bbb8af00ea
:10481800adafaf00b2bbc000cae27e006153590021
:104828005e5ffc00e4e5dd00ddeafe0066544c0056
:1048380047413e003b3a3b003a3c45004c5be000b8
:10484800d2c6bd00bebcb900bdc1c000cad6d70023
:10485800ee6a7200656177006e6ded00fd6b7400a5
:104868005e535800504848004742430046464a00b5
:1048780050576600f1e2d600cecdcb00cacccd00b1
:10488800ced4d800deeaee00f27c7b00fbff7c0091
:10489800fbff78007b716a006c675f00605f5b00fc
:1048a8005b5c5d005e646c006f7af900efebe6001c
:1048b800e1e0e000dededf00dfe0e300e4e4e70063
:1048c800eaeaea00ebedef00f5f7fb007f7c7a00ff
:1048d800777675007171760078797d00fffaf000bf
:1048e800eef8f300e4e7f500e9e0ec00eee3e800b9
:1048f800f2ebeb00f6f6f500fdfcf800fd7eff009c
:10490800ff7f7f007b797a0078767800777675006c
:10491800757a7e007ffefd00fefffc00fbfe7f0037
:10492800fffeff007d7c7900767575007676750050
:1049380077797900797b7d007d7c7d007e7d7d00a7
:104948007d7c7d007e7e7e00fffefe00fefdfb007e
:10495800f9faf900f8fafc00fbfbfd00fe7e7e0088
:10496800ff7e7c007c7c7c007e7d7a007c7e7d00e6
:104978007d7d7c007b7b7a007b7d7e007efffe0058
:10498800fefefe00fcfcfd00fdfeff00ff7f7e003a
:104998007e7d7e00fffeff00ffff7e00fffefe0023
:1049a800fdfeff00feff7e007d7d7c007e7f7e0099
:1049b8007e7e7e007f7e7d007e7e7c007b7b7b0012
:1049c8007c7c7900787b790078797900797a79002c
:1049d8007b7b7a00797878007675760077797b002a
:1049e800797b7d007e7e7f00fffdfe00fefefd00e0
:1049f800fdfe7f00ffff7f007e7c7a007b7c7c00d1
:104a08007efdfd00fdfbf900f8f6f500f6f6f60070
:104a1800f8fbfd00fdfffe00fdfcfb00fbfcfe00bb
:104a2800fdfaf900f8f8f700f6f6f800faf9f800d8
:104a3800fafcfb00f9f9fa00fbfbfb00fcfaf800b2
:104a4800f9fcfd00fcfcfe00fefdfe00fefeff0082
:104a5800fefefd00fdffff00fe7e7d007d7d7e00e9
:104a68007fff7f007e7e7e007d7e7f007e7efe0053
:104a7800ffffff00feffff00ff7e7e007e7c7b00c5
:104a88007e7f7e007d7e7d007c7d7d007b7b7c0043
:104a98007c7c7c007a7a7b007a7a7b007c7b7b004a
:104aa8007d7e7e007e7f7e007e7e7d007c7eff0098
:104ab8007f7fff00ff7fff00ff7ffe00fefeff00fd
:104ac800fefdfd00fdfe7f007f7fff00feffff0073
:104ad8007f7d7d007fffff007f7e7e007e7e7e00e3
:104ae8007d7e7e007c7d7f00ff7e7e007e7e7f0057
:104af800ff7f7e007d7ffe00fefefe00fefefd00c5
:104b0800fdfeff00ffff7f007ffefd00fefffe00b1
:104b1800fdfdfe00ffff7e007f7f7d007d7c7a002b
:104b28007b7d7c007b7c7d007a7b7d007c7a7700b6
:104b3800777676007977770078787700797b7b00cd
:104b480078787a0079797a007a797a007c7d7d00a4
:104b58007d7e7d007c7c7c007c7d7d007c7e7e0073
:104b68007e7e7d007efeff007ffefc00fbfbfb00df
:104b7800fafafa00fbfbfb00fcfcfb00fbfbfb006a
:104b8800fbfbfa00fafcfb00fafbfb00fafafb005d
:104b9800fbfcfd00fcfbfb00fafafa00fafafa004b
:104ba800f9fbfc00fbfbfd00fefeff00fefdfe0026
:104bb800fdfcfe007ef9f0007d77f4007e70e800d1
:104bc800ea65ff00ed677e00f3687c00f86a7d0007
:104bd800fe69f900ed6b6e00fa6f73007c6e75006c
:104be8007e7078007d727b007d747900797479001d
:104bf80077757d007a777a007a7c7f007b7c7e00ef
:104c08007c7e7f007a787a007e7afe00f1f3dc0001
:104c1800dc656d00fb5f6e0073647d00756df300ed
:104c28007b75f100f7fafd0078fdfc00f5e4ec0077
:104c38006d686b006b7379006c6cfc007c747e0093
:104c48006c64670063666d00686b740076fff10042
:104c5800f2f7f000eeeeec00edefef00f1eff00010
:104c6800f5f0f300fbf6f300faf8f200fcfef800aa
:104c7800fffbfc00fdf3fb00f6ef7d00f9f77b007e
:104c8800f4f87b00fcfbfe0078fef90074fef900e6
:104c980076fd7e00777977007f7b77007d7c7a00d0
:104ca8007b757200787679007c747b007b6e71006e
:104cb8007671780074707e00756f7800747577006f
:104cc8007b7c7b00feff7e00fbfcfd00fdfff70008
:104cd800f97cf900f87bfb00f6fffa00f7fc7a0094
:104ce8007cfc770077fb7e007bf6f900fcf4f8008b
:104cf800faf7fb00fbfdf600f67bfa00f2fcfb007e
:104d0800f77e7d00fc7c77007c7b76007b7e7500df
:104d18007ef97700fefd71007d7b7800fd75ff0050
:104d2800fd717d007979fe00717dff00707b750053
:104d380072ff7800767e7b00797875007e7d7a0038
:104d4800ff7e7e007c787c00fe7a7d007e78fe0007
:104d58007a707600716d7400746f77007776fe0054
:104d680074717d006e6b71006b6d770072787b00db
:104d780079fe7a0075fe7a0074fc7900787e7700f7
:104d8800fdfd7c00fbfdfd00fbfffb00f7fdfd00ca
:104d9800fafafb007f7d7b0078777a007d7d7e00c4
:104da800fcfbfa00f1f1f900efeef600eff6fb007c
:104db800edf5fd00f2f6ef00ecf9f400effefb0074
:104dc800f3fd7f00f4f5ff00fbf0f300f2f0f700cd
:104dd800f1f2fc00f8fd7f00f97d7d00fa7c7a0095
:104de800f9fb770079fd7b00777cfe00fb7c7c007b
:104df800f8797600fd716e00736f740076777c0029
:104e08007dfefd007d7f7e007efc7d007dfc7c00bc
:104e18007efe740078fe78007c7d6f0076786d00e9
:104e2800717372007a7370007a6e6e00fe7471008e
:104e38007e727500fb757900f77c7e00fd7cf900b9
:104e4800fb7df900f9fefa00f87f7d00f8fd7c0093
:104e5800fd7c7e007e76780075767e007473fd009a
:104e6800797279007e7c7600fdf37a007cf87c000c
:104e7800fef9fc00f4f9f900f47e7e00f87f7c006e
:104e88007e7d78007af9fe00787ffe007c7d7700d1
:104e9800777d7d007b7b7a007cfefe00787b7c0042
:104ea80078ff7b006f7a7e0075787600757b7300db
:104eb80073797000727f7900747574007b756f0068
:104ec800797674007e7e7c007e7ff800fc76fd009b
:104ed800f67c7b00fdfd7e00fcf57e007df5fa008a
:104ee800faf5fc00fbf9f900f6fdfa00f47d78000c
:104ef800fdfcfd00fbf9fa00fdfefb00fc7e7f00d7
:104f0800fe7d7c00fcfc7d00fef8fd007dfcfc00c5
:104f18007e7c7f00f9ff7f00f97d7b00fbff7e0030
:104f2800fe7dfe007f7a7e00fe7fff00fdfd7c0097
:104f38007efd7e007d7ffe007f7b7c007e7a79008f
:104f48007c7979007f7d7b007e7c7b007fff7e0003
:104f58007e7eff007c777a007e7d7c007ffcfb00f4
:104f68007d7efd007c787b007e7e7f00fdff7c00df
:104f78007c7c7e00feff7f007d7d7e007c79770053
:104f88007b7b79007d7d78007b7f7b00797dfe00cf
:104f9800fefefd007ffdfa00fcfcfc00fdfbfd00b1
:104fa8007efefe00fdfe7c007dfefd007f7d7f0015
:104fb800fefe7f007efdfd00fefdfe00fcfbfd0009
:104fc800fcfbf800f9faf800fafcfa00fcfdfd0019
:104fd8007e7fff007ffd7e007dfffe00fe7d7e0060
:104fe800fbfe7c00ffffff007f7dfd00fe7d7e0055
:104ff8007d7d7b00797c7d007a7b7d007e7e7b00d9
:105008007c7870006f716f006e707500757171003b
:105018007372740073737600757474007375750019
:10502800787c7900757578007c7d7e00fdfbfa0040
:10503800f8f7f600f7f5f600fcfaf600f6f6f800d1
:10504800f9f7f800f9f3f200f3f1f000f1f4f600e3
:10505800f0eff700f5eff300f6f1f000f5f7f500e3
:10506800f4f7f800f4f0f300f7f5f400f8f5f200bf
:10507800f4f7f700f7f8fc00fcf8f800faf9f50087
:10508800f3f6f900f8f6fb00fefbfb00ff7efc00e0
:10509800fcfe7f00fffeff00fefcfd007e7e7e0022
:1050a800ff7e7d00fffdfe007f7fff00ff7d7a0011
:1050b800797b7c007b7d7e007d7b7b007b78760026
:1050c800797a770074777e007f7d7e00fe7e770098
:1050d800767d7c00797c7f007e7d7e007e7e7c00f4
:1050e800797b7c007b7d7d007e7f7e007f7ffc005e
:1050f800f9fdfe00fd7e7d007c7cff007ffdfc004d
:10510800fe7e7b007efc7d007efcfd007e7c7f00b9
:105118007f797c00fdfe7d007efcfc007e7efb002e
:10512800fb7ffc00f7fb7c007ef9fd007b7dfa002d
:10513800fafffb00fc7dfe00fcfdfd00fcfbfd0012
:10514800fd7f7a007c7f7e007e7dfd007f77790081
:10515800fcfb7900767d7d007b7dff007d75770007
:105168007f7a7300757dfd007877fc00fc77750009
:1051780078787100707776007071770079737200b3
:1051880075767600717172006e71750076787900a7
:105198007a7a78007b7c7a00797779007cfdf9004f
:1051a800ff7a7d007a7174007e7e780077797b00c3
:1051b8007c7d7f007b797b007c7d7d007a7c7d0017
:1051c8007c7df900f67eff00f9ff79007a7c7b0090
:1051d800777afb00fc7dfa00f4f8fe00fcf8f80092
:1051e800faf8f500f7fcfd00fe7d7d00fefffe00ed
:1051f800fbfafb00fcfaf700f9fafb00fd7e7d00e4
:10520800fcff7c00fefbfe007b7b7c007b7a7a0047
:105218007c7a7400737778007778fd00fc7a7a00de
:10522800fcfe78007bfe7900797d7e007e7b76002f
:10523800777978007c7e7900767a7b007a797700b6
:10524800fefa770076fdfe007d7b78007a7a7a0098
:105258007cfdf900fcfdfd00fe7b7900fbf7fd00fd
:10526800fbf7fe007dfcf9007f7cf700f6f9f700fc
:10527800fc7e7e00fcfb7d007dff7900787b7f0053
:10528800fcfbf800fa7c7d00fbfe7b00787cfc00d0
:105298007f7cfa00fa797a007f7b7e007e7a7b0039
:1052a8007a7ef900fa7a740079fefc007e7d7e0031
:1052b8007a7d7e007b7c7e00fcfbfc007d7d7c0093
:1052c800787b7b007bfd7d007676750074797e00a7
:1052d8007e7975007678790075787900737bf800a7
:1052e800fd74730078797d007d7c7b0076787c0086
:1052f800797afc00fbfdfd00fdfc7b0072767d00e9
:105308007c787a007d7b79007c7fff007c77760053
:105318007dfafd007dfdfc00fbf6f9007c7cf900c0
:10532800fb7cfe00fcfdfd00ff7d7e00fdf8f80023
:10533800fcfcff00fcf2f300fcfcf600fcfef500b0
:10534800f2fc7a00fffc7e007efbfa007d7bf80011
:10535800f4fafe00fdffff00fbf8fa007e7eff0076
:105368007c7a7800787d7d007c7f7d007b7a780070
:105378007979760073777a00716f7500706e7200b4
:1053880076787a007e7b7800786d6c006e6f6e00a0
:105398006e70760077717100756e6e0079787300a3
:1053a80071717800756f7200787473007c77720081
:1053b8007879750073757b007d7c7900777bff00b9
:1053c8007c7975007274fd00f4fd7d00fe7d7c0023
:1053d800fdfbfc007e7d7e007cfffc007efef7006e
:1053e800f9f5f100fafefa00faf8f800fefbfa0007
:1053f8007cfff900faf6f300fc7c7e007cfcf000f0
:10540800f5fbfc007a7ff600fb7d7d00fefafb00d1
:105418007f7a7a00fbfc7a00f9f67b007afcfc00c4
:10542800fe7c78007efcfe00ff7f7e007f7a78009d
:105438007b7d7e00787afa00ff7b7f0078727800a7
:105448007c7a7d00fd787000717174007678fe00ba
:10545800fafe7b007afffe007b7b750078f5f8008a
:105468007d7d7f007e7779007efbf9007a7b7f0067
:105478007b7efe00fefdff007c7cfc00fc7c7c004b
:105488007c7ffc00fcfb7d00777dfb00fbfdfe00c4
:105498007c7cfa007e7bfc00fcfaf800fffcf10043
:1054a800f1fa7c007efcff007ffcfb00fc7c7c00aa
:1054b800fdfbf500f87b7a0077767d007dfffb0029
:1054c800f7f1fa00747af800fbfdfc007a707b00b3
:1054d800fbfe7a00727efe00757ef9007e7bff007f
:1054e8007c767a007d7d7e007a7ffa007c78750074
:1054f80073777600767876007179f200f6757a001f
:10550800f97f760077fff9007b75fe007e77f9005a
:10551800f0f8fd00fdf8fa00797ef500fe7ef60051
:10552800f7fdfe00fffbf400f5f8f900f9f8f500c7
:10553800f3f2f300f6f8f700f5f6f900f7f3f700e1
:10554800f8f2f300fcf9f000fa7b7d00f6f0f700c2
:10555800f9f8f600fa7cfe00fd7b79007b7b780089
:1055680073727a00787577007a7976007ef8f4009d
:10557800efede900e7e7e600e6e8e900eceeee002b
:10558800f4fafa00fcfdfc00fcfdff007d7d7b00c9
:105598007976750076726d006b6c6c006b6b6c00c5
:1055a8006d6d6f007272740077777a007b7b7c0078
:1055b8007fffff00fefdfd00fdfdfd00fbfafa0088
:1055c800f9f8f900f8f9f900fbfaf900fbfdfe001b
:1055d800fdfdfd00fdfefe00fcfdfe00fefdfd00e4
:1055e800fcfbf900f8f7f500f4f3f300f4f5f50027
:1055f800f5f5f400f4f4f500f6f6f500f6f6f50026
:10560800f5f5f500f4f4f400f4f4f400f5f6f70019
:10561800f9f9f900fafbfb00fcfcfb00fafafa00c6
:10562800fafbfd00fdfdfe00fffeff00fffefd0092
:10563800fdfefe00fefefe00ff7f7f007fff7f0075
:105648007f7f7f007f7fff00ff7fff007e7d7d00e3
:105658007d7c7d007c7b7c007c7b7b007c7c7c0073
:105668007c7c7d007e7f7f007fffff00ffff7f0047
:10567800ffffff007f7f7e007e7f7f007fffff00b0
:10568800ffffff00fefdfe00fdfcfb00fbfbfb0037
:10569800fcfcfb00fafbfc00fcfcfc00fdfdfc0034
:1056a800fcfcfc00fcfefe00fdfefe00fefdfd0015
:1056b800fefefe00fefefd00fdfefe00ffffff00f9
:1056c800ffffff00fefefe00fefefd00fcfe7f0069
:1056d800fefeff00fffefe00fefeff00fefeff00d6
:1056e800ffffff007f7e7f007e7e7e007e7e7e0045
:1056f8007e7e7e007e7d7e00ff7f7e007e7f7f0037
:105708007e7e7e007d7c7c007d7c7b007c7d7d00b8
:105718007c7d7d007d7d7d007e7e7f007f7fff001c
:10572800ff7e7e007f7f7e007e7fff007fffff0081
:10573800ffffff00ffffff00ffffff00ffffff006d
:10574800ffffff00fefefe00fefefd00fdfefe0068
:10575800feffff00ffffff00ff7fff00ff7fff004e
:10576800feff7f00ff7fff007f7e7f007f7f7e0040
:105778007fff7f007e7e7f007e7e7e007e7e7e00b5
:105788007fff7f007e7f7e007e7e7d007c7c7d00ab
:105798007c7c7b007b7d7d007d7d7e007e7e7e0027
:1057a8007f7e7e007e7e7e007e7d7e007e7d7d000b
:1057b8007e7d7c007c7c7d007c7a7b007b7b7a0014
:1057c8007a7a7a007c7c7c007d7e7e007e7e7e00fc
:1057d8007e7f7e007e7e7e007e7e7f007e7e7e00d7
:1057e8007f7f7f007f7f7e007e7e7e007fffff00c1
:1057f8007f7f7f007f7f7f00ffff7f007f7f7f00ad
:105808007f7f7f007f7fff00ffffff00ffffff001c
:10581800ffffff00ffffff00ffff7f007fffff008c
:10582800ffffff00ffffff00ff7f7f007fff7f007c
:10583800ffff7f007fffff007f7f7e007f7f7e006e
:105848007fffff007fff7f007ffffe00ff7f7f005d
:105858007f7f7f00ffffff007f7f7f007fffff00cc
:10586800ffffff007f7f7e007e7e7e007e7f7f00c1
:105878007e7d7e007e7f7e007ef8ec00ebeff100ff
:10588800eceaef00f9fbf700eff0fe007dfbfd000e
:10589800756e6e006c67630063615f005f62630032
:1058a80064696d006e747e00ff7efb00f9fcfe00eb
:1058b800fe7d770075716d006a6966006463630038
:1058c8005f5e5f005d5d5e0061677400f4e6dd00a9
:1058d800d7d0ce00cdcccd00cfd2d600dee9f700b0
:1058e8006d625d0057514f004d4b4900474a5400c7
:1058f8005661da00d2cec100bfbfbc00bdc0c30034
:10590800cad6ea00695a5500535159006366f40033
:10591800dfded600d5dee000f55f56004a413e00e6
:105928003a3537003b3b42005eeecd00bbb8b500d0
:10593800afb0b400b4b9c400cdde53004a483e004d
:105948003f474300484f490044433b003132380049
:1059580030344a004458bf00c2baad00afafac0003
:10596800b1b9ba00c4f86e00604045004e3d490028
:105978005b475f00ec57fb00e65c66006c504e002e
:10598800514946004b4645004e4d50006c7be9009e
:10599800d1ceca00c3c2c100bfbfc100c3c5cb00be
:1059a800cfd7ed006d5b4a00413d380034312d0002
:1059b8002d3335003a5edc00c6b1ae00aca6a800b7
:1059c800a9a9ad00b2b8c400db694e004442430047
:1059d80043484c004b4e4900413d34002e2f2f00c8
:1059e8002d363e0043ddc100bbaeaa00aaa7a80021
:1059f800acabae00babdcb005e5f4c003f48450083
:105a0800425250004e5f4f00434137002e2f2f0067
:105a18002c323a003c6cca00c2afac00aca7a8005c
:105a2800aaa9af00b6b9d800785b3f0042423c0053
:105a380045484400514d4100413a2f002f2f2c007a
:105a48002f3838004ed6ce00b6aeae00a9a8ac00ae
:105a5800abadb700bac66f00624a3e00423f3d0098
:105a6800464544004c453e003d342d002e2e2b006b
